{
  "contractName": "Poker",
  "abi": [
    {
      "inputs": [],
      "stateMutability": "nonpayable",
      "type": "constructor"
    },
    {
      "anonymous": false,
      "inputs": [
        {
          "indexed": true,
          "internalType": "address",
          "name": "owner",
          "type": "address"
        },
        {
          "indexed": true,
          "internalType": "address",
          "name": "spender",
          "type": "address"
        },
        {
          "indexed": false,
          "internalType": "uint256",
          "name": "value",
          "type": "uint256"
        }
      ],
      "name": "Approval",
      "type": "event"
    },
    {
      "anonymous": false,
      "inputs": [
        {
          "indexed": true,
          "internalType": "address",
          "name": "delegator",
          "type": "address"
        },
        {
          "indexed": true,
          "internalType": "address",
          "name": "fromDelegate",
          "type": "address"
        },
        {
          "indexed": true,
          "internalType": "address",
          "name": "toDelegate",
          "type": "address"
        }
      ],
      "name": "DelegateChanged",
      "type": "event"
    },
    {
      "anonymous": false,
      "inputs": [
        {
          "indexed": true,
          "internalType": "address",
          "name": "delegate",
          "type": "address"
        },
        {
          "indexed": false,
          "internalType": "uint256",
          "name": "previousBalance",
          "type": "uint256"
        },
        {
          "indexed": false,
          "internalType": "uint256",
          "name": "newBalance",
          "type": "uint256"
        }
      ],
      "name": "DelegateVotesChanged",
      "type": "event"
    },
    {
      "anonymous": false,
      "inputs": [
        {
          "indexed": true,
          "internalType": "address",
          "name": "previousOwner",
          "type": "address"
        },
        {
          "indexed": true,
          "internalType": "address",
          "name": "newOwner",
          "type": "address"
        }
      ],
      "name": "OwnershipTransferred",
      "type": "event"
    },
    {
      "anonymous": false,
      "inputs": [
        {
          "indexed": false,
          "internalType": "address",
          "name": "account",
          "type": "address"
        }
      ],
      "name": "Paused",
      "type": "event"
    },
    {
      "anonymous": false,
      "inputs": [
        {
          "indexed": true,
          "internalType": "address",
          "name": "from",
          "type": "address"
        },
        {
          "indexed": true,
          "internalType": "address",
          "name": "to",
          "type": "address"
        },
        {
          "indexed": false,
          "internalType": "uint256",
          "name": "value",
          "type": "uint256"
        }
      ],
      "name": "Transfer",
      "type": "event"
    },
    {
      "anonymous": false,
      "inputs": [
        {
          "indexed": false,
          "internalType": "address",
          "name": "account",
          "type": "address"
        }
      ],
      "name": "Unpaused",
      "type": "event"
    },
    {
      "inputs": [],
      "name": "DOMAIN_SEPARATOR",
      "outputs": [
        {
          "internalType": "bytes32",
          "name": "",
          "type": "bytes32"
        }
      ],
      "stateMutability": "view",
      "type": "function"
    },
    {
      "inputs": [
        {
          "internalType": "address",
          "name": "owner",
          "type": "address"
        },
        {
          "internalType": "address",
          "name": "spender",
          "type": "address"
        }
      ],
      "name": "allowance",
      "outputs": [
        {
          "internalType": "uint256",
          "name": "",
          "type": "uint256"
        }
      ],
      "stateMutability": "view",
      "type": "function"
    },
    {
      "inputs": [
        {
          "internalType": "address",
          "name": "spender",
          "type": "address"
        },
        {
          "internalType": "uint256",
          "name": "amount",
          "type": "uint256"
        }
      ],
      "name": "approve",
      "outputs": [
        {
          "internalType": "bool",
          "name": "",
          "type": "bool"
        }
      ],
      "stateMutability": "nonpayable",
      "type": "function"
    },
    {
      "inputs": [
        {
          "internalType": "address",
          "name": "account",
          "type": "address"
        }
      ],
      "name": "balanceOf",
      "outputs": [
        {
          "internalType": "uint256",
          "name": "",
          "type": "uint256"
        }
      ],
      "stateMutability": "view",
      "type": "function"
    },
    {
      "inputs": [
        {
          "internalType": "uint256",
          "name": "amount",
          "type": "uint256"
        }
      ],
      "name": "burn",
      "outputs": [],
      "stateMutability": "nonpayable",
      "type": "function"
    },
    {
      "inputs": [
        {
          "internalType": "address",
          "name": "account",
          "type": "address"
        },
        {
          "internalType": "uint256",
          "name": "amount",
          "type": "uint256"
        }
      ],
      "name": "burnFrom",
      "outputs": [],
      "stateMutability": "nonpayable",
      "type": "function"
    },
    {
      "inputs": [
        {
          "internalType": "address",
          "name": "account",
          "type": "address"
        },
        {
          "internalType": "uint32",
          "name": "pos",
          "type": "uint32"
        }
      ],
      "name": "checkpoints",
      "outputs": [
        {
          "components": [
            {
              "internalType": "uint32",
              "name": "fromBlock",
              "type": "uint32"
            },
            {
              "internalType": "uint224",
              "name": "votes",
              "type": "uint224"
            }
          ],
          "internalType": "struct ERC20Votes.Checkpoint",
          "name": "",
          "type": "tuple"
        }
      ],
      "stateMutability": "view",
      "type": "function"
    },
    {
      "inputs": [],
      "name": "decimals",
      "outputs": [
        {
          "internalType": "uint8",
          "name": "",
          "type": "uint8"
        }
      ],
      "stateMutability": "view",
      "type": "function"
    },
    {
      "inputs": [
        {
          "internalType": "address",
          "name": "spender",
          "type": "address"
        },
        {
          "internalType": "uint256",
          "name": "subtractedValue",
          "type": "uint256"
        }
      ],
      "name": "decreaseAllowance",
      "outputs": [
        {
          "internalType": "bool",
          "name": "",
          "type": "bool"
        }
      ],
      "stateMutability": "nonpayable",
      "type": "function"
    },
    {
      "inputs": [
        {
          "internalType": "address",
          "name": "delegatee",
          "type": "address"
        }
      ],
      "name": "delegate",
      "outputs": [],
      "stateMutability": "nonpayable",
      "type": "function"
    },
    {
      "inputs": [
        {
          "internalType": "address",
          "name": "delegatee",
          "type": "address"
        },
        {
          "internalType": "uint256",
          "name": "nonce",
          "type": "uint256"
        },
        {
          "internalType": "uint256",
          "name": "expiry",
          "type": "uint256"
        },
        {
          "internalType": "uint8",
          "name": "v",
          "type": "uint8"
        },
        {
          "internalType": "bytes32",
          "name": "r",
          "type": "bytes32"
        },
        {
          "internalType": "bytes32",
          "name": "s",
          "type": "bytes32"
        }
      ],
      "name": "delegateBySig",
      "outputs": [],
      "stateMutability": "nonpayable",
      "type": "function"
    },
    {
      "inputs": [
        {
          "internalType": "address",
          "name": "account",
          "type": "address"
        }
      ],
      "name": "delegates",
      "outputs": [
        {
          "internalType": "address",
          "name": "",
          "type": "address"
        }
      ],
      "stateMutability": "view",
      "type": "function"
    },
    {
      "inputs": [
        {
          "internalType": "uint256",
          "name": "blockNumber",
          "type": "uint256"
        }
      ],
      "name": "getPastTotalSupply",
      "outputs": [
        {
          "internalType": "uint256",
          "name": "",
          "type": "uint256"
        }
      ],
      "stateMutability": "view",
      "type": "function"
    },
    {
      "inputs": [
        {
          "internalType": "address",
          "name": "account",
          "type": "address"
        },
        {
          "internalType": "uint256",
          "name": "blockNumber",
          "type": "uint256"
        }
      ],
      "name": "getPastVotes",
      "outputs": [
        {
          "internalType": "uint256",
          "name": "",
          "type": "uint256"
        }
      ],
      "stateMutability": "view",
      "type": "function"
    },
    {
      "inputs": [
        {
          "internalType": "address",
          "name": "account",
          "type": "address"
        }
      ],
      "name": "getVotes",
      "outputs": [
        {
          "internalType": "uint256",
          "name": "",
          "type": "uint256"
        }
      ],
      "stateMutability": "view",
      "type": "function"
    },
    {
      "inputs": [
        {
          "internalType": "address",
          "name": "spender",
          "type": "address"
        },
        {
          "internalType": "uint256",
          "name": "addedValue",
          "type": "uint256"
        }
      ],
      "name": "increaseAllowance",
      "outputs": [
        {
          "internalType": "bool",
          "name": "",
          "type": "bool"
        }
      ],
      "stateMutability": "nonpayable",
      "type": "function"
    },
    {
      "inputs": [],
      "name": "name",
      "outputs": [
        {
          "internalType": "string",
          "name": "",
          "type": "string"
        }
      ],
      "stateMutability": "view",
      "type": "function"
    },
    {
      "inputs": [
        {
          "internalType": "address",
          "name": "owner",
          "type": "address"
        }
      ],
      "name": "nonces",
      "outputs": [
        {
          "internalType": "uint256",
          "name": "",
          "type": "uint256"
        }
      ],
      "stateMutability": "view",
      "type": "function"
    },
    {
      "inputs": [
        {
          "internalType": "address",
          "name": "account",
          "type": "address"
        }
      ],
      "name": "numCheckpoints",
      "outputs": [
        {
          "internalType": "uint32",
          "name": "",
          "type": "uint32"
        }
      ],
      "stateMutability": "view",
      "type": "function"
    },
    {
      "inputs": [],
      "name": "owner",
      "outputs": [
        {
          "internalType": "address",
          "name": "",
          "type": "address"
        }
      ],
      "stateMutability": "view",
      "type": "function"
    },
    {
      "inputs": [],
      "name": "paused",
      "outputs": [
        {
          "internalType": "bool",
          "name": "",
          "type": "bool"
        }
      ],
      "stateMutability": "view",
      "type": "function"
    },
    {
      "inputs": [
        {
          "internalType": "address",
          "name": "owner",
          "type": "address"
        },
        {
          "internalType": "address",
          "name": "spender",
          "type": "address"
        },
        {
          "internalType": "uint256",
          "name": "value",
          "type": "uint256"
        },
        {
          "internalType": "uint256",
          "name": "deadline",
          "type": "uint256"
        },
        {
          "internalType": "uint8",
          "name": "v",
          "type": "uint8"
        },
        {
          "internalType": "bytes32",
          "name": "r",
          "type": "bytes32"
        },
        {
          "internalType": "bytes32",
          "name": "s",
          "type": "bytes32"
        }
      ],
      "name": "permit",
      "outputs": [],
      "stateMutability": "nonpayable",
      "type": "function"
    },
    {
      "inputs": [],
      "name": "renounceOwnership",
      "outputs": [],
      "stateMutability": "nonpayable",
      "type": "function"
    },
    {
      "inputs": [],
      "name": "symbol",
      "outputs": [
        {
          "internalType": "string",
          "name": "",
          "type": "string"
        }
      ],
      "stateMutability": "view",
      "type": "function"
    },
    {
      "inputs": [],
      "name": "totalSupply",
      "outputs": [
        {
          "internalType": "uint256",
          "name": "",
          "type": "uint256"
        }
      ],
      "stateMutability": "view",
      "type": "function"
    },
    {
      "inputs": [
        {
          "internalType": "address",
          "name": "to",
          "type": "address"
        },
        {
          "internalType": "uint256",
          "name": "amount",
          "type": "uint256"
        }
      ],
      "name": "transfer",
      "outputs": [
        {
          "internalType": "bool",
          "name": "",
          "type": "bool"
        }
      ],
      "stateMutability": "nonpayable",
      "type": "function"
    },
    {
      "inputs": [
        {
          "internalType": "address",
          "name": "from",
          "type": "address"
        },
        {
          "internalType": "address",
          "name": "to",
          "type": "address"
        },
        {
          "internalType": "uint256",
          "name": "amount",
          "type": "uint256"
        }
      ],
      "name": "transferFrom",
      "outputs": [
        {
          "internalType": "bool",
          "name": "",
          "type": "bool"
        }
      ],
      "stateMutability": "nonpayable",
      "type": "function"
    },
    {
      "inputs": [
        {
          "internalType": "address",
          "name": "newOwner",
          "type": "address"
        }
      ],
      "name": "transferOwnership",
      "outputs": [],
      "stateMutability": "nonpayable",
      "type": "function"
    },
    {
      "inputs": [],
      "name": "pause",
      "outputs": [],
      "stateMutability": "nonpayable",
      "type": "function"
    },
    {
      "inputs": [],
      "name": "unpause",
      "outputs": [],
      "stateMutability": "nonpayable",
      "type": "function"
    },
    {
      "inputs": [
        {
          "internalType": "address",
          "name": "to",
          "type": "address"
        },
        {
          "internalType": "uint256",
          "name": "amount",
          "type": "uint256"
        }
      ],
      "name": "mint",
      "outputs": [],
      "stateMutability": "nonpayable",
      "type": "function"
    }
  ],
  "bytecode": "0x6101406040523480156200001257600080fd5b506040518060400160405280600581526020017f506f6b6572000000000000000000000000000000000000000000000000000000815250806040518060400160405280600181526020017f31000000000000000000000000000000000000000000000000000000000000008152506040518060400160405280600581526020017f506f6b65720000000000000000000000000000000000000000000000000000008152506040518060400160405280600281526020017f504b0000000000000000000000000000000000000000000000000000000000008152508160039080519060200190620001049291906200031e565b5080600490805190602001906200011d9291906200031e565b5050506000600560006101000a81548160ff0219169083151502179055506200015b6200014f6200021460201b60201c565b6200021c60201b60201c565b60008280519060200120905060008280519060200120905060007f8b73c3c69bb8fe3d512ecc4cf759cc79239f7b179b0ffacaa9a75d522b39400f90508260e081815250508161010081815250504660a08181525050620001c4818484620002e260201b60201c565b608081815250503073ffffffffffffffffffffffffffffffffffffffff1660c08173ffffffffffffffffffffffffffffffffffffffff16815250508061012081815250505050505050506200050a565b600033905090565b6000600560019054906101000a900473ffffffffffffffffffffffffffffffffffffffff16905081600560016101000a81548173ffffffffffffffffffffffffffffffffffffffff021916908373ffffffffffffffffffffffffffffffffffffffff1602179055508173ffffffffffffffffffffffffffffffffffffffff168173ffffffffffffffffffffffffffffffffffffffff167f8be0079c531659141344cd1fd0a4f28419497f9722a3daafe3b4186f6b6457e060405160405180910390a35050565b60008383834630604051602001620002ff95949392919062000449565b6040516020818303038152906040528051906020012090509392505050565b8280546200032c90620004d5565b90600052602060002090601f0160209004810192826200035057600085556200039c565b82601f106200036b57805160ff19168380011785556200039c565b828001600101855582156200039c579182015b828111156200039b5782518255916020019190600101906200037e565b5b509050620003ab9190620003af565b5090565b5b80821115620003ca576000816000905550600101620003b0565b5090565b6000819050919050565b620003e381620003ce565b82525050565b6000819050919050565b620003fe81620003e9565b82525050565b600073ffffffffffffffffffffffffffffffffffffffff82169050919050565b6000620004318262000404565b9050919050565b620004438162000424565b82525050565b600060a082019050620004606000830188620003d8565b6200046f6020830187620003d8565b6200047e6040830186620003d8565b6200048d6060830185620003f3565b6200049c608083018462000438565b9695505050505050565b7f4e487b7100000000000000000000000000000000000000000000000000000000600052602260045260246000fd5b60006002820490506001821680620004ee57607f821691505b602082108103620005045762000503620004a6565b5b50919050565b60805160a05160c05160e05161010051610120516143836200055a60003960006118fc0152600061193e0152600061191d01526000611852015260006118a8015260006118d101526143836000f3fe608060405234801561001057600080fd5b50600436106101e55760003560e01c806370a082311161010f5780639ab24eb0116100a2578063d505accf11610071578063d505accf146105a6578063dd62ed3e146105c2578063f1127ed8146105f2578063f2fde38b14610622576101e5565b80639ab24eb0146104fa578063a457c2d71461052a578063a9059cbb1461055a578063c3cda5201461058a576101e5565b80638456cb59116100de5780638456cb59146104845780638da5cb5b1461048e5780638e539e8c146104ac57806395d89b41146104dc576101e5565b806370a08231146103fe578063715018a61461042e57806379cc6790146104385780637ecebe0014610454576101e5565b80633a46b1a811610187578063587cde1e11610156578063587cde1e146103645780635c19a95c146103945780635c975abb146103b05780636fcfff45146103ce576101e5565b80633a46b1a8146102f25780633f4ba83a1461032257806340c10f191461032c57806342966c6814610348576101e5565b806323b872dd116101c357806323b872dd14610256578063313ce567146102865780633644e515146102a457806339509351146102c2576101e5565b806306fdde03146101ea578063095ea7b31461020857806318160ddd14610238575b600080fd5b6101f261063e565b6040516101ff9190612cba565b60405180910390f35b610222600480360381019061021d9190612d75565b6106d0565b60405161022f9190612dd0565b60405180910390f35b6102406106f3565b60405161024d9190612dfa565b60405180910390f35b610270600480360381019061026b9190612e15565b6106fd565b60405161027d9190612dd0565b60405180910390f35b61028e61072c565b60405161029b9190612e84565b60405180910390f35b6102ac610735565b6040516102b99190612eb8565b60405180910390f35b6102dc60048036038101906102d79190612d75565b610744565b6040516102e99190612dd0565b60405180910390f35b61030c60048036038101906103079190612d75565b61077b565b6040516103199190612dfa565b60405180910390f35b61032a61080f565b005b61034660048036038101906103419190612d75565b610895565b005b610362600480360381019061035d9190612ed3565b61091f565b005b61037e60048036038101906103799190612f00565b610933565b60405161038b9190612f3c565b60405180910390f35b6103ae60048036038101906103a99190612f00565b61099c565b005b6103b86109b0565b6040516103c59190612dd0565b60405180910390f35b6103e860048036038101906103e39190612f00565b6109c7565b6040516103f59190612f76565b60405180910390f35b61041860048036038101906104139190612f00565b610a1b565b6040516104259190612dfa565b60405180910390f35b610436610a63565b005b610452600480360381019061044d9190612d75565b610aeb565b005b61046e60048036038101906104699190612f00565b610b0b565b60405161047b9190612dfa565b60405180910390f35b61048c610b5b565b005b610496610be1565b6040516104a39190612f3c565b60405180910390f35b6104c660048036038101906104c19190612ed3565b610c0b565b6040516104d39190612dfa565b60405180910390f35b6104e4610c61565b6040516104f19190612cba565b60405180910390f35b610514600480360381019061050f9190612f00565b610cf3565b6040516105219190612dfa565b60405180910390f35b610544600480360381019061053f9190612d75565b610e04565b6040516105519190612dd0565b60405180910390f35b610574600480360381019061056f9190612d75565b610e7b565b6040516105819190612dd0565b60405180910390f35b6105a4600480360381019061059f9190612fe9565b610e9e565b005b6105c060048036038101906105bb9190613076565b610fa2565b005b6105dc60048036038101906105d79190613118565b6110e4565b6040516105e99190612dfa565b60405180910390f35b61060c60048036038101906106079190613184565b61116b565b6040516106199190613239565b60405180910390f35b61063c60048036038101906106379190612f00565b61127b565b005b60606003805461064d90613283565b80601f016020809104026020016040519081016040528092919081815260200182805461067990613283565b80156106c65780601f1061069b576101008083540402835291602001916106c6565b820191906000526020600020905b8154815290600101906020018083116106a957829003601f168201915b5050505050905090565b6000806106db611372565b90506106e881858561137a565b600191505092915050565b6000600254905090565b600080610708611372565b9050610715858285611543565b6107208585856115cf565b60019150509392505050565b60006012905090565b600061073f61184e565b905090565b60008061074f611372565b905061077081858561076185896110e4565b61076b91906132e3565b61137a565b600191505092915050565b60004382106107bf576040517f08c379a00000000000000000000000000000000000000000000000000000000081526004016107b690613385565b60405180910390fd5b610807600960008573ffffffffffffffffffffffffffffffffffffffff1673ffffffffffffffffffffffffffffffffffffffff16815260200190815260200160002083611968565b905092915050565b610817611372565b73ffffffffffffffffffffffffffffffffffffffff16610835610be1565b73ffffffffffffffffffffffffffffffffffffffff161461088b576040517f08c379a0000000000000000000000000000000000000000000000000000000008152600401610882906133f1565b60405180910390fd5b610893611a74565b565b61089d611372565b73ffffffffffffffffffffffffffffffffffffffff166108bb610be1565b73ffffffffffffffffffffffffffffffffffffffff1614610911576040517f08c379a0000000000000000000000000000000000000000000000000000000008152600401610908906133f1565b60405180910390fd5b61091b8282611b16565b5050565b61093061092a611372565b82611b24565b50565b6000600860008373ffffffffffffffffffffffffffffffffffffffff1673ffffffffffffffffffffffffffffffffffffffff16815260200190815260200160002060009054906101000a900473ffffffffffffffffffffffffffffffffffffffff169050919050565b6109ad6109a7611372565b82611b32565b50565b6000600560009054906101000a900460ff16905090565b6000610a14600960008473ffffffffffffffffffffffffffffffffffffffff1673ffffffffffffffffffffffffffffffffffffffff16815260200190815260200160002080549050611c4c565b9050919050565b60008060008373ffffffffffffffffffffffffffffffffffffffff1673ffffffffffffffffffffffffffffffffffffffff168152602001908152602001600020549050919050565b610a6b611372565b73ffffffffffffffffffffffffffffffffffffffff16610a89610be1565b73ffffffffffffffffffffffffffffffffffffffff1614610adf576040517f08c379a0000000000000000000000000000000000000000000000000000000008152600401610ad6906133f1565b60405180910390fd5b610ae96000611c9f565b565b610afd82610af7611372565b83611543565b610b078282611b24565b5050565b6000610b54600660008473ffffffffffffffffffffffffffffffffffffffff1673ffffffffffffffffffffffffffffffffffffffff168152602001908152602001600020611d65565b9050919050565b610b63611372565b73ffffffffffffffffffffffffffffffffffffffff16610b81610be1565b73ffffffffffffffffffffffffffffffffffffffff1614610bd7576040517f08c379a0000000000000000000000000000000000000000000000000000000008152600401610bce906133f1565b60405180910390fd5b610bdf611d73565b565b6000600560019054906101000a900473ffffffffffffffffffffffffffffffffffffffff16905090565b6000438210610c4f576040517f08c379a0000000000000000000000000000000000000000000000000000000008152600401610c4690613385565b60405180910390fd5b610c5a600a83611968565b9050919050565b606060048054610c7090613283565b80601f0160208091040260200160405190810160405280929190818152602001828054610c9c90613283565b8015610ce95780601f10610cbe57610100808354040283529160200191610ce9565b820191906000526020600020905b815481529060010190602001808311610ccc57829003601f168201915b5050505050905090565b600080600960008473ffffffffffffffffffffffffffffffffffffffff1673ffffffffffffffffffffffffffffffffffffffff16815260200190815260200160002080549050905060008114610ddb57600960008473ffffffffffffffffffffffffffffffffffffffff1673ffffffffffffffffffffffffffffffffffffffff168152602001908152602001600020600182610d8f9190613411565b81548110610da057610d9f613445565b5b9060005260206000200160000160049054906101000a90047bffffffffffffffffffffffffffffffffffffffffffffffffffffffff16610dde565b60005b7bffffffffffffffffffffffffffffffffffffffffffffffffffffffff16915050919050565b600080610e0f611372565b90506000610e1d82866110e4565b905083811015610e62576040517f08c379a0000000000000000000000000000000000000000000000000000000008152600401610e59906134e6565b60405180910390fd5b610e6f828686840361137a565b60019250505092915050565b600080610e86611372565b9050610e938185856115cf565b600191505092915050565b83421115610ee1576040517f08c379a0000000000000000000000000000000000000000000000000000000008152600401610ed890613552565b60405180910390fd5b6000610f43610f3b7fe48329057bfd03d55e49b547132e39cffd9c1820ad7b9d4c5307691425d15adf898989604051602001610f209493929190613572565b60405160208183030381529060405280519060200120611e16565b858585611e30565b9050610f4e81611e5b565b8614610f8f576040517f08c379a0000000000000000000000000000000000000000000000000000000008152600401610f8690613603565b60405180910390fd5b610f998188611b32565b50505050505050565b83421115610fe5576040517f08c379a0000000000000000000000000000000000000000000000000000000008152600401610fdc9061366f565b60405180910390fd5b60007f6e71edae12b1b97f4d1f60370fef10105fa2faae0126114a169c64845d6126c98888886110148c611e5b565b8960405160200161102a9695949392919061368f565b604051602081830303815290604052805190602001209050600061104d82611e16565b9050600061105d82878787611e30565b90508973ffffffffffffffffffffffffffffffffffffffff168173ffffffffffffffffffffffffffffffffffffffff16146110cd576040517f08c379a00000000000000000000000000000000000000000000000000000000081526004016110c49061373c565b60405180910390fd5b6110d88a8a8a61137a565b50505050505050505050565b6000600160008473ffffffffffffffffffffffffffffffffffffffff1673ffffffffffffffffffffffffffffffffffffffff16815260200190815260200160002060008373ffffffffffffffffffffffffffffffffffffffff1673ffffffffffffffffffffffffffffffffffffffff16815260200190815260200160002054905092915050565b611173612be3565b600960008473ffffffffffffffffffffffffffffffffffffffff1673ffffffffffffffffffffffffffffffffffffffff1681526020019081526020016000208263ffffffff16815481106111ca576111c9613445565b5b906000526020600020016040518060400160405290816000820160009054906101000a900463ffffffff1663ffffffff1663ffffffff1681526020016000820160049054906101000a90047bffffffffffffffffffffffffffffffffffffffffffffffffffffffff167bffffffffffffffffffffffffffffffffffffffffffffffffffffffff167bffffffffffffffffffffffffffffffffffffffffffffffffffffffff1681525050905092915050565b611283611372565b73ffffffffffffffffffffffffffffffffffffffff166112a1610be1565b73ffffffffffffffffffffffffffffffffffffffff16146112f7576040517f08c379a00000000000000000000000000000000000000000000000000000000081526004016112ee906133f1565b60405180910390fd5b600073ffffffffffffffffffffffffffffffffffffffff168173ffffffffffffffffffffffffffffffffffffffff1603611366576040517f08c379a000000000000000000000000000000000000000000000000000000000815260040161135d906137ce565b60405180910390fd5b61136f81611c9f565b50565b600033905090565b600073ffffffffffffffffffffffffffffffffffffffff168373ffffffffffffffffffffffffffffffffffffffff16036113e9576040517f08c379a00000000000000000000000000000000000000000000000000000000081526004016113e090613860565b60405180910390fd5b600073ffffffffffffffffffffffffffffffffffffffff168273ffffffffffffffffffffffffffffffffffffffff1603611458576040517f08c379a000000000000000000000000000000000000000000000000000000000815260040161144f906138f2565b60405180910390fd5b80600160008573ffffffffffffffffffffffffffffffffffffffff1673ffffffffffffffffffffffffffffffffffffffff16815260200190815260200160002060008473ffffffffffffffffffffffffffffffffffffffff1673ffffffffffffffffffffffffffffffffffffffff168152602001908152602001600020819055508173ffffffffffffffffffffffffffffffffffffffff168373ffffffffffffffffffffffffffffffffffffffff167f8c5be1e5ebec7d5bd14f71427d1e84f3dd0314c0f7b2291e5b200ac8c7c3b925836040516115369190612dfa565b60405180910390a3505050565b600061154f84846110e4565b90507fffffffffffffffffffffffffffffffffffffffffffffffffffffffffffffffff81146115c957818110156115bb576040517f08c379a00000000000000000000000000000000000000000000000000000000081526004016115b29061395e565b60405180910390fd5b6115c8848484840361137a565b5b50505050565b600073ffffffffffffffffffffffffffffffffffffffff168373ffffffffffffffffffffffffffffffffffffffff160361163e576040517f08c379a0000000000000000000000000000000000000000000000000000000008152600401611635906139f0565b60405180910390fd5b600073ffffffffffffffffffffffffffffffffffffffff168273ffffffffffffffffffffffffffffffffffffffff16036116ad576040517f08c379a00000000000000000000000000000000000000000000000000000000081526004016116a490613a82565b60405180910390fd5b6116b8838383611eb9565b60008060008573ffffffffffffffffffffffffffffffffffffffff1673ffffffffffffffffffffffffffffffffffffffff1681526020019081526020016000205490508181101561173e576040517f08c379a000000000000000000000000000000000000000000000000000000000815260040161173590613b14565b60405180910390fd5b8181036000808673ffffffffffffffffffffffffffffffffffffffff1673ffffffffffffffffffffffffffffffffffffffff16815260200190815260200160002081905550816000808573ffffffffffffffffffffffffffffffffffffffff1673ffffffffffffffffffffffffffffffffffffffff16815260200190815260200160002060008282546117d191906132e3565b925050819055508273ffffffffffffffffffffffffffffffffffffffff168473ffffffffffffffffffffffffffffffffffffffff167fddf252ad1be2c89b69c2b068fc378daa952ba7f163c4a11628f55a4df523b3ef846040516118359190612dfa565b60405180910390a3611848848484611f11565b50505050565b60007f000000000000000000000000000000000000000000000000000000000000000073ffffffffffffffffffffffffffffffffffffffff163073ffffffffffffffffffffffffffffffffffffffff161480156118ca57507f000000000000000000000000000000000000000000000000000000000000000046145b156118f7577f00000000000000000000000000000000000000000000000000000000000000009050611965565b6119627f00000000000000000000000000000000000000000000000000000000000000007f00000000000000000000000000000000000000000000000000000000000000007f0000000000000000000000000000000000000000000000000000000000000000611f21565b90505b90565b6000808380549050905060005b818110156119e75760006119898284611f5b565b90508486828154811061199f5761199e613445565b5b9060005260206000200160000160009054906101000a900463ffffffff1663ffffffff1611156119d1578092506119e1565b6001816119de91906132e3565b91505b50611975565b60008214611a4957846001836119fd9190613411565b81548110611a0e57611a0d613445565b5b9060005260206000200160000160049054906101000a90047bffffffffffffffffffffffffffffffffffffffffffffffffffffffff16611a4c565b60005b7bffffffffffffffffffffffffffffffffffffffffffffffffffffffff169250505092915050565b611a7c6109b0565b611abb576040517f08c379a0000000000000000000000000000000000000000000000000000000008152600401611ab290613b80565b60405180910390fd5b6000600560006101000a81548160ff0219169083151502179055507f5db9ee0a495bf2e6ff9c91a7834c1ba4fdd244a5e8aa4e537bd38aeae4b073aa611aff611372565b604051611b0c9190612f3c565b60405180910390a1565b611b208282611f81565b5050565b611b2e828261200e565b5050565b6000611b3d83610933565b90506000611b4a84610a1b565b905082600860008673ffffffffffffffffffffffffffffffffffffffff1673ffffffffffffffffffffffffffffffffffffffff16815260200190815260200160002060006101000a81548173ffffffffffffffffffffffffffffffffffffffff021916908373ffffffffffffffffffffffffffffffffffffffff1602179055508273ffffffffffffffffffffffffffffffffffffffff168273ffffffffffffffffffffffffffffffffffffffff168573ffffffffffffffffffffffffffffffffffffffff167f3134e8a2e6d97e929a7e54011ea5485d7d196dd5f0ba4d4ef95803e8e3fc257f60405160405180910390a4611c4682848361202c565b50505050565b600063ffffffff8016821115611c97576040517f08c379a0000000000000000000000000000000000000000000000000000000008152600401611c8e90613c12565b60405180910390fd5b819050919050565b6000600560019054906101000a900473ffffffffffffffffffffffffffffffffffffffff16905081600560016101000a81548173ffffffffffffffffffffffffffffffffffffffff021916908373ffffffffffffffffffffffffffffffffffffffff1602179055508173ffffffffffffffffffffffffffffffffffffffff168173ffffffffffffffffffffffffffffffffffffffff167f8be0079c531659141344cd1fd0a4f28419497f9722a3daafe3b4186f6b6457e060405160405180910390a35050565b600081600001549050919050565b611d7b6109b0565b15611dbb576040517f08c379a0000000000000000000000000000000000000000000000000000000008152600401611db290613c7e565b60405180910390fd5b6001600560006101000a81548160ff0219169083151502179055507f62e78cea01bee320cd4e420270b5ea74000d11b0c9f74754ebdbfc544b05a258611dff611372565b604051611e0c9190612f3c565b60405180910390a1565b6000611e29611e2361184e565b83612225565b9050919050565b6000806000611e4187878787612258565b91509150611e4e81612364565b8192505050949350505050565b600080600660008473ffffffffffffffffffffffffffffffffffffffff1673ffffffffffffffffffffffffffffffffffffffff1681526020019081526020016000209050611ea881611d65565b9150611eb381612530565b50919050565b611ec16109b0565b15611f01576040517f08c379a0000000000000000000000000000000000000000000000000000000008152600401611ef890613c7e565b60405180910390fd5b611f0c838383612546565b505050565b611f1c83838361254b565b505050565b60008383834630604051602001611f3c959493929190613c9e565b6040516020818303038152906040528051906020012090509392505050565b60006002828418611f6c9190613d20565b828416611f7991906132e3565b905092915050565b611f8b8282612576565b611f936126d5565b7bffffffffffffffffffffffffffffffffffffffffffffffffffffffff16611fb96106f3565b1115611ffa576040517f08c379a0000000000000000000000000000000000000000000000000000000008152600401611ff190613dc3565b60405180910390fd5b612008600a6126f98361270f565b50505050565b6120188282612987565b612026600a612b5d8361270f565b50505050565b8173ffffffffffffffffffffffffffffffffffffffff168373ffffffffffffffffffffffffffffffffffffffff16141580156120685750600081115b1561222057600073ffffffffffffffffffffffffffffffffffffffff168373ffffffffffffffffffffffffffffffffffffffff1614612146576000806120ef600960008773ffffffffffffffffffffffffffffffffffffffff1673ffffffffffffffffffffffffffffffffffffffff168152602001908152602001600020612b5d8561270f565b915091508473ffffffffffffffffffffffffffffffffffffffff167fdec2bacdd2f05b59de34da9b523dff8be42e5e38e818c82fdb0bae774387a724838360405161213b929190613de3565b60405180910390a250505b600073ffffffffffffffffffffffffffffffffffffffff168273ffffffffffffffffffffffffffffffffffffffff161461221f576000806121c8600960008673ffffffffffffffffffffffffffffffffffffffff1673ffffffffffffffffffffffffffffffffffffffff1681526020019081526020016000206126f98561270f565b915091508373ffffffffffffffffffffffffffffffffffffffff167fdec2bacdd2f05b59de34da9b523dff8be42e5e38e818c82fdb0bae774387a7248383604051612214929190613de3565b60405180910390a250505b5b505050565b6000828260405160200161223a929190613e84565b60405160208183030381529060405280519060200120905092915050565b6000807f7fffffffffffffffffffffffffffffff5d576e7357a4501ddfe92f46681b20a08360001c111561229357600060039150915061235b565b601b8560ff16141580156122ab5750601c8560ff1614155b156122bd57600060049150915061235b565b6000600187878787604051600081526020016040526040516122e29493929190613ebb565b6020604051602081039080840390855afa158015612304573d6000803e3d6000fd5b505050602060405103519050600073ffffffffffffffffffffffffffffffffffffffff168173ffffffffffffffffffffffffffffffffffffffff16036123525760006001925092505061235b565b80600092509250505b94509492505050565b6000600481111561237857612377613f00565b5b81600481111561238b5761238a613f00565b5b031561252d57600160048111156123a5576123a4613f00565b5b8160048111156123b8576123b7613f00565b5b036123f8576040517f08c379a00000000000000000000000000000000000000000000000000000000081526004016123ef90613f7b565b60405180910390fd5b6002600481111561240c5761240b613f00565b5b81600481111561241f5761241e613f00565b5b0361245f576040517f08c379a000000000000000000000000000000000000000000000000000000000815260040161245690613fe7565b60405180910390fd5b6003600481111561247357612472613f00565b5b81600481111561248657612485613f00565b5b036124c6576040517f08c379a00000000000000000000000000000000000000000000000000000000081526004016124bd90614079565b60405180910390fd5b6004808111156124d9576124d8613f00565b5b8160048111156124ec576124eb613f00565b5b0361252c576040517f08c379a00000000000000000000000000000000000000000000000000000000081526004016125239061410b565b60405180910390fd5b5b50565b6001816000016000828254019250508190555050565b505050565b612556838383612b73565b61257161256284610933565b61256b84610933565b8361202c565b505050565b600073ffffffffffffffffffffffffffffffffffffffff168273ffffffffffffffffffffffffffffffffffffffff16036125e5576040517f08c379a00000000000000000000000000000000000000000000000000000000081526004016125dc90614177565b60405180910390fd5b6125f160008383611eb9565b806002600082825461260391906132e3565b92505081905550806000808473ffffffffffffffffffffffffffffffffffffffff1673ffffffffffffffffffffffffffffffffffffffff168152602001908152602001600020600082825461265891906132e3565b925050819055508173ffffffffffffffffffffffffffffffffffffffff16600073ffffffffffffffffffffffffffffffffffffffff167fddf252ad1be2c89b69c2b068fc378daa952ba7f163c4a11628f55a4df523b3ef836040516126bd9190612dfa565b60405180910390a36126d160008383611f11565b5050565b60007bffffffffffffffffffffffffffffffffffffffffffffffffffffffff905090565b6000818361270791906132e3565b905092915050565b6000806000858054905090506000811461277d57856001826127319190613411565b8154811061274257612741613445565b5b9060005260206000200160000160049054906101000a90047bffffffffffffffffffffffffffffffffffffffffffffffffffffffff16612780565b60005b7bffffffffffffffffffffffffffffffffffffffffffffffffffffffff1692506127ae83858763ffffffff16565b9150600081118015612801575043866001836127ca9190613411565b815481106127db576127da613445565b5b9060005260206000200160000160009054906101000a900463ffffffff1663ffffffff16145b1561288e5761280f82612b78565b8660018361281d9190613411565b8154811061282e5761282d613445565b5b9060005260206000200160000160046101000a8154817bffffffffffffffffffffffffffffffffffffffffffffffffffffffff02191690837bffffffffffffffffffffffffffffffffffffffffffffffffffffffff16021790555061297e565b8560405180604001604052806128a343611c4c565b63ffffffff1681526020016128b785612b78565b7bffffffffffffffffffffffffffffffffffffffffffffffffffffffff168152509080600181540180825580915050600190039060005260206000200160009091909190915060008201518160000160006101000a81548163ffffffff021916908363ffffffff16021790555060208201518160000160046101000a8154817bffffffffffffffffffffffffffffffffffffffffffffffffffffffff02191690837bffffffffffffffffffffffffffffffffffffffffffffffffffffffff16021790555050505b50935093915050565b600073ffffffffffffffffffffffffffffffffffffffff168273ffffffffffffffffffffffffffffffffffffffff16036129f6576040517f08c379a00000000000000000000000000000000000000000000000000000000081526004016129ed90614209565b60405180910390fd5b612a0282600083611eb9565b60008060008473ffffffffffffffffffffffffffffffffffffffff1673ffffffffffffffffffffffffffffffffffffffff16815260200190815260200160002054905081811015612a88576040517f08c379a0000000000000000000000000000000000000000000000000000000008152600401612a7f9061429b565b60405180910390fd5b8181036000808573ffffffffffffffffffffffffffffffffffffffff1673ffffffffffffffffffffffffffffffffffffffff168152602001908152602001600020819055508160026000828254612adf9190613411565b92505081905550600073ffffffffffffffffffffffffffffffffffffffff168373ffffffffffffffffffffffffffffffffffffffff167fddf252ad1be2c89b69c2b068fc378daa952ba7f163c4a11628f55a4df523b3ef84604051612b449190612dfa565b60405180910390a3612b5883600084611f11565b505050565b60008183612b6b9190613411565b905092915050565b505050565b60007bffffffffffffffffffffffffffffffffffffffffffffffffffffffff8016821115612bdb576040517f08c379a0000000000000000000000000000000000000000000000000000000008152600401612bd29061432d565b60405180910390fd5b819050919050565b6040518060400160405280600063ffffffff16815260200160007bffffffffffffffffffffffffffffffffffffffffffffffffffffffff1681525090565b600081519050919050565b600082825260208201905092915050565b60005b83811015612c5b578082015181840152602081019050612c40565b83811115612c6a576000848401525b50505050565b6000601f19601f8301169050919050565b6000612c8c82612c21565b612c968185612c2c565b9350612ca6818560208601612c3d565b612caf81612c70565b840191505092915050565b60006020820190508181036000830152612cd48184612c81565b905092915050565b600080fd5b600073ffffffffffffffffffffffffffffffffffffffff82169050919050565b6000612d0c82612ce1565b9050919050565b612d1c81612d01565b8114612d2757600080fd5b50565b600081359050612d3981612d13565b92915050565b6000819050919050565b612d5281612d3f565b8114612d5d57600080fd5b50565b600081359050612d6f81612d49565b92915050565b60008060408385031215612d8c57612d8b612cdc565b5b6000612d9a85828601612d2a565b9250506020612dab85828601612d60565b9150509250929050565b60008115159050919050565b612dca81612db5565b82525050565b6000602082019050612de56000830184612dc1565b92915050565b612df481612d3f565b82525050565b6000602082019050612e0f6000830184612deb565b92915050565b600080600060608486031215612e2e57612e2d612cdc565b5b6000612e3c86828701612d2a565b9350506020612e4d86828701612d2a565b9250506040612e5e86828701612d60565b9150509250925092565b600060ff82169050919050565b612e7e81612e68565b82525050565b6000602082019050612e996000830184612e75565b92915050565b6000819050919050565b612eb281612e9f565b82525050565b6000602082019050612ecd6000830184612ea9565b92915050565b600060208284031215612ee957612ee8612cdc565b5b6000612ef784828501612d60565b91505092915050565b600060208284031215612f1657612f15612cdc565b5b6000612f2484828501612d2a565b91505092915050565b612f3681612d01565b82525050565b6000602082019050612f516000830184612f2d565b92915050565b600063ffffffff82169050919050565b612f7081612f57565b82525050565b6000602082019050612f8b6000830184612f67565b92915050565b612f9a81612e68565b8114612fa557600080fd5b50565b600081359050612fb781612f91565b92915050565b612fc681612e9f565b8114612fd157600080fd5b50565b600081359050612fe381612fbd565b92915050565b60008060008060008060c0878903121561300657613005612cdc565b5b600061301489828a01612d2a565b965050602061302589828a01612d60565b955050604061303689828a01612d60565b945050606061304789828a01612fa8565b935050608061305889828a01612fd4565b92505060a061306989828a01612fd4565b9150509295509295509295565b600080600080600080600060e0888a03121561309557613094612cdc565b5b60006130a38a828b01612d2a565b97505060206130b48a828b01612d2a565b96505060406130c58a828b01612d60565b95505060606130d68a828b01612d60565b94505060806130e78a828b01612fa8565b93505060a06130f88a828b01612fd4565b92505060c06131098a828b01612fd4565b91505092959891949750929550565b6000806040838503121561312f5761312e612cdc565b5b600061313d85828601612d2a565b925050602061314e85828601612d2a565b9150509250929050565b61316181612f57565b811461316c57600080fd5b50565b60008135905061317e81613158565b92915050565b6000806040838503121561319b5761319a612cdc565b5b60006131a985828601612d2a565b92505060206131ba8582860161316f565b9150509250929050565b6131cd81612f57565b82525050565b60007bffffffffffffffffffffffffffffffffffffffffffffffffffffffff82169050919050565b613204816131d3565b82525050565b60408201600082015161322060008501826131c4565b50602082015161323360208501826131fb565b50505050565b600060408201905061324e600083018461320a565b92915050565b7f4e487b7100000000000000000000000000000000000000000000000000000000600052602260045260246000fd5b6000600282049050600182168061329b57607f821691505b6020821081036132ae576132ad613254565b5b50919050565b7f4e487b7100000000000000000000000000000000000000000000000000000000600052601160045260246000fd5b60006132ee82612d3f565b91506132f983612d3f565b9250827fffffffffffffffffffffffffffffffffffffffffffffffffffffffffffffffff0382111561332e5761332d6132b4565b5b828201905092915050565b7f4552433230566f7465733a20626c6f636b206e6f7420796574206d696e656400600082015250565b600061336f601f83612c2c565b915061337a82613339565b602082019050919050565b6000602082019050818103600083015261339e81613362565b9050919050565b7f4f776e61626c653a2063616c6c6572206973206e6f7420746865206f776e6572600082015250565b60006133db602083612c2c565b91506133e6826133a5565b602082019050919050565b6000602082019050818103600083015261340a816133ce565b9050919050565b600061341c82612d3f565b915061342783612d3f565b92508282101561343a576134396132b4565b5b828203905092915050565b7f4e487b7100000000000000000000000000000000000000000000000000000000600052603260045260246000fd5b7f45524332303a2064656372656173656420616c6c6f77616e63652062656c6f7760008201527f207a65726f000000000000000000000000000000000000000000000000000000602082015250565b60006134d0602583612c2c565b91506134db82613474565b604082019050919050565b600060208201905081810360008301526134ff816134c3565b9050919050565b7f4552433230566f7465733a207369676e61747572652065787069726564000000600082015250565b600061353c601d83612c2c565b915061354782613506565b602082019050919050565b6000602082019050818103600083015261356b8161352f565b9050919050565b60006080820190506135876000830187612ea9565b6135946020830186612f2d565b6135a16040830185612deb565b6135ae6060830184612deb565b95945050505050565b7f4552433230566f7465733a20696e76616c6964206e6f6e636500000000000000600082015250565b60006135ed601983612c2c565b91506135f8826135b7565b602082019050919050565b6000602082019050818103600083015261361c816135e0565b9050919050565b7f45524332305065726d69743a206578706972656420646561646c696e65000000600082015250565b6000613659601d83612c2c565b915061366482613623565b602082019050919050565b600060208201905081810360008301526136888161364c565b9050919050565b600060c0820190506136a46000830189612ea9565b6136b16020830188612f2d565b6136be6040830187612f2d565b6136cb6060830186612deb565b6136d86080830185612deb565b6136e560a0830184612deb565b979650505050505050565b7f45524332305065726d69743a20696e76616c6964207369676e61747572650000600082015250565b6000613726601e83612c2c565b9150613731826136f0565b602082019050919050565b6000602082019050818103600083015261375581613719565b9050919050565b7f4f776e61626c653a206e6577206f776e657220697320746865207a65726f206160008201527f6464726573730000000000000000000000000000000000000000000000000000602082015250565b60006137b8602683612c2c565b91506137c38261375c565b604082019050919050565b600060208201905081810360008301526137e7816137ab565b9050919050565b7f45524332303a20617070726f76652066726f6d20746865207a65726f2061646460008201527f7265737300000000000000000000000000000000000000000000000000000000602082015250565b600061384a602483612c2c565b9150613855826137ee565b604082019050919050565b600060208201905081810360008301526138798161383d565b9050919050565b7f45524332303a20617070726f766520746f20746865207a65726f20616464726560008201527f7373000000000000000000000000000000000000000000000000000000000000602082015250565b60006138dc602283612c2c565b91506138e782613880565b604082019050919050565b6000602082019050818103600083015261390b816138cf565b9050919050565b7f45524332303a20696e73756666696369656e7420616c6c6f77616e6365000000600082015250565b6000613948601d83612c2c565b915061395382613912565b602082019050919050565b600060208201905081810360008301526139778161393b565b9050919050565b7f45524332303a207472616e736665722066726f6d20746865207a65726f20616460008201527f6472657373000000000000000000000000000000000000000000000000000000602082015250565b60006139da602583612c2c565b91506139e58261397e565b604082019050919050565b60006020820190508181036000830152613a09816139cd565b9050919050565b7f45524332303a207472616e7366657220746f20746865207a65726f206164647260008201527f6573730000000000000000000000000000000000000000000000000000000000602082015250565b6000613a6c602383612c2c565b9150613a7782613a10565b604082019050919050565b60006020820190508181036000830152613a9b81613a5f565b9050919050565b7f45524332303a207472616e7366657220616d6f756e742065786365656473206260008201527f616c616e63650000000000000000000000000000000000000000000000000000602082015250565b6000613afe602683612c2c565b9150613b0982613aa2565b604082019050919050565b60006020820190508181036000830152613b2d81613af1565b9050919050565b7f5061757361626c653a206e6f7420706175736564000000000000000000000000600082015250565b6000613b6a601483612c2c565b9150613b7582613b34565b602082019050919050565b60006020820190508181036000830152613b9981613b5d565b9050919050565b7f53616665436173743a2076616c756520646f65736e27742066697420696e203360008201527f3220626974730000000000000000000000000000000000000000000000000000602082015250565b6000613bfc602683612c2c565b9150613c0782613ba0565b604082019050919050565b60006020820190508181036000830152613c2b81613bef565b9050919050565b7f5061757361626c653a2070617573656400000000000000000000000000000000600082015250565b6000613c68601083612c2c565b9150613c7382613c32565b602082019050919050565b60006020820190508181036000830152613c9781613c5b565b9050919050565b600060a082019050613cb36000830188612ea9565b613cc06020830187612ea9565b613ccd6040830186612ea9565b613cda6060830185612deb565b613ce76080830184612f2d565b9695505050505050565b7f4e487b7100000000000000000000000000000000000000000000000000000000600052601260045260246000fd5b6000613d2b82612d3f565b9150613d3683612d3f565b925082613d4657613d45613cf1565b5b828204905092915050565b7f4552433230566f7465733a20746f74616c20737570706c79207269736b73206f60008201527f766572666c6f77696e6720766f74657300000000000000000000000000000000602082015250565b6000613dad603083612c2c565b9150613db882613d51565b604082019050919050565b60006020820190508181036000830152613ddc81613da0565b9050919050565b6000604082019050613df86000830185612deb565b613e056020830184612deb565b9392505050565b600081905092915050565b7f1901000000000000000000000000000000000000000000000000000000000000600082015250565b6000613e4d600283613e0c565b9150613e5882613e17565b600282019050919050565b6000819050919050565b613e7e613e7982612e9f565b613e63565b82525050565b6000613e8f82613e40565b9150613e9b8285613e6d565b602082019150613eab8284613e6d565b6020820191508190509392505050565b6000608082019050613ed06000830187612ea9565b613edd6020830186612e75565b613eea6040830185612ea9565b613ef76060830184612ea9565b95945050505050565b7f4e487b7100000000000000000000000000000000000000000000000000000000600052602160045260246000fd5b7f45434453413a20696e76616c6964207369676e61747572650000000000000000600082015250565b6000613f65601883612c2c565b9150613f7082613f2f565b602082019050919050565b60006020820190508181036000830152613f9481613f58565b9050919050565b7f45434453413a20696e76616c6964207369676e6174757265206c656e67746800600082015250565b6000613fd1601f83612c2c565b9150613fdc82613f9b565b602082019050919050565b6000602082019050818103600083015261400081613fc4565b9050919050565b7f45434453413a20696e76616c6964207369676e6174757265202773272076616c60008201527f7565000000000000000000000000000000000000000000000000000000000000602082015250565b6000614063602283612c2c565b915061406e82614007565b604082019050919050565b6000602082019050818103600083015261409281614056565b9050919050565b7f45434453413a20696e76616c6964207369676e6174757265202776272076616c60008201527f7565000000000000000000000000000000000000000000000000000000000000602082015250565b60006140f5602283612c2c565b915061410082614099565b604082019050919050565b60006020820190508181036000830152614124816140e8565b9050919050565b7f45524332303a206d696e7420746f20746865207a65726f206164647265737300600082015250565b6000614161601f83612c2c565b915061416c8261412b565b602082019050919050565b6000602082019050818103600083015261419081614154565b9050919050565b7f45524332303a206275726e2066726f6d20746865207a65726f2061646472657360008201527f7300000000000000000000000000000000000000000000000000000000000000602082015250565b60006141f3602183612c2c565b91506141fe82614197565b604082019050919050565b60006020820190508181036000830152614222816141e6565b9050919050565b7f45524332303a206275726e20616d6f756e7420657863656564732062616c616e60008201527f6365000000000000000000000000000000000000000000000000000000000000602082015250565b6000614285602283612c2c565b915061429082614229565b604082019050919050565b600060208201905081810360008301526142b481614278565b9050919050565b7f53616665436173743a2076616c756520646f65736e27742066697420696e203260008201527f3234206269747300000000000000000000000000000000000000000000000000602082015250565b6000614317602783612c2c565b9150614322826142bb565b604082019050919050565b600060208201905081810360008301526143468161430a565b905091905056fea26469706673582212201400591147dc12a875103978e01c0bc9860515c3665a0031528b69fa1de811d164736f6c634300080d0033",
  "immutableReferences": {
    "2758": [
      {
        "length": 32,
        "start": 6353
      }
    ],
    "2760": [
      {
        "length": 32,
        "start": 6312
      }
    ],
    "2762": [
      {
        "length": 32,
        "start": 6226
      }
    ],
    "2764": [
      {
        "length": 32,
        "start": 6429
      }
    ],
    "2766": [
      {
        "length": 32,
        "start": 6462
      }
    ],
    "2768": [
      {
        "length": 32,
        "start": 6396
      }
    ]
  },
  "source": "// SPDX-License-Identifier: MIT\npragma solidity >0.4.20;\n\nimport \"../node_modules/@openzeppelin/contracts/token/ERC20/ERC20.sol\";\nimport \"../node_modules/@openzeppelin/contracts/token/ERC20/extensions/ERC20Burnable.sol\";\nimport \"../node_modules/@openzeppelin/contracts/security/Pausable.sol\";\nimport \"../node_modules/@openzeppelin/contracts/access/Ownable.sol\";\nimport \"../node_modules/@openzeppelin/contracts/token/ERC20/extensions/draft-ERC20Permit.sol\";\nimport \"../node_modules/@openzeppelin/contracts/token/ERC20/extensions/ERC20Votes.sol\";\n\ncontract Poker is ERC20, ERC20Burnable, Pausable, Ownable, ERC20Permit, ERC20Votes {\n    constructor() ERC20(\"Poker\", \"PK\") ERC20Permit(\"Poker\") {}\n\n    function pause() public onlyOwner {\n        _pause();\n    }\n\n    function unpause() public onlyOwner {\n        _unpause();\n    }\n\n    function mint(address to, uint256 amount) public onlyOwner {\n        _mint(to, amount);\n    }\n\n    function _beforeTokenTransfer(address from, address to, uint256 amount)\n        internal\n        whenNotPaused\n        override\n    {\n        super._beforeTokenTransfer(from, to, amount);\n    }\n\n    // The following functions are overrides required by Solidity.\n\n    function _afterTokenTransfer(address from, address to, uint256 amount)\n        internal\n        override(ERC20, ERC20Votes)\n    {\n        super._afterTokenTransfer(from, to, amount);\n    }\n\n    function _mint(address to, uint256 amount)\n        internal\n        override(ERC20, ERC20Votes)\n    {\n        super._mint(to, amount);\n    }\n\n    function _burn(address account, uint256 amount)\n        internal\n        override(ERC20, ERC20Votes)\n    {\n        super._burn(account, amount);\n    }\n\n}",
  "sourcePath": "/home/secondport/Documents/DApps/Proyectos/Oracle/contracts/Poker.sol",
  "compiler": {
    "name": "solc",
    "version": "0.8.13+commit.abaa5c0e.Emscripten.clang"
  },
  "schemaVersion": "3.4.7",
  "updatedAt": "2022-05-29T07:27:52.065Z",
  "devdoc": {
    "kind": "dev",
    "methods": {
      "DOMAIN_SEPARATOR()": {
        "details": "See {IERC20Permit-DOMAIN_SEPARATOR}."
      },
      "allowance(address,address)": {
        "details": "See {IERC20-allowance}."
      },
      "approve(address,uint256)": {
        "details": "See {IERC20-approve}. NOTE: If `amount` is the maximum `uint256`, the allowance is not updated on `transferFrom`. This is semantically equivalent to an infinite approval. Requirements: - `spender` cannot be the zero address."
      },
      "balanceOf(address)": {
        "details": "See {IERC20-balanceOf}."
      },
      "burn(uint256)": {
        "details": "Destroys `amount` tokens from the caller. See {ERC20-_burn}."
      },
      "burnFrom(address,uint256)": {
        "details": "Destroys `amount` tokens from `account`, deducting from the caller's allowance. See {ERC20-_burn} and {ERC20-allowance}. Requirements: - the caller must have allowance for ``accounts``'s tokens of at least `amount`."
      },
      "checkpoints(address,uint32)": {
        "details": "Get the `pos`-th checkpoint for `account`."
      },
      "decimals()": {
        "details": "Returns the number of decimals used to get its user representation. For example, if `decimals` equals `2`, a balance of `505` tokens should be displayed to a user as `5.05` (`505 / 10 ** 2`). Tokens usually opt for a value of 18, imitating the relationship between Ether and Wei. This is the value {ERC20} uses, unless this function is overridden; NOTE: This information is only used for _display_ purposes: it in no way affects any of the arithmetic of the contract, including {IERC20-balanceOf} and {IERC20-transfer}."
      },
      "decreaseAllowance(address,uint256)": {
        "details": "Atomically decreases the allowance granted to `spender` by the caller. This is an alternative to {approve} that can be used as a mitigation for problems described in {IERC20-approve}. Emits an {Approval} event indicating the updated allowance. Requirements: - `spender` cannot be the zero address. - `spender` must have allowance for the caller of at least `subtractedValue`."
      },
      "delegate(address)": {
        "details": "Delegate votes from the sender to `delegatee`."
      },
      "delegateBySig(address,uint256,uint256,uint8,bytes32,bytes32)": {
        "details": "Delegates votes from signer to `delegatee`"
      },
      "delegates(address)": {
        "details": "Get the address `account` is currently delegating to."
      },
      "getPastTotalSupply(uint256)": {
        "details": "Retrieve the `totalSupply` at the end of `blockNumber`. Note, this value is the sum of all balances. It is but NOT the sum of all the delegated votes! Requirements: - `blockNumber` must have been already mined"
      },
      "getPastVotes(address,uint256)": {
        "details": "Retrieve the number of votes for `account` at the end of `blockNumber`. Requirements: - `blockNumber` must have been already mined"
      },
      "getVotes(address)": {
        "details": "Gets the current votes balance for `account`"
      },
      "increaseAllowance(address,uint256)": {
        "details": "Atomically increases the allowance granted to `spender` by the caller. This is an alternative to {approve} that can be used as a mitigation for problems described in {IERC20-approve}. Emits an {Approval} event indicating the updated allowance. Requirements: - `spender` cannot be the zero address."
      },
      "name()": {
        "details": "Returns the name of the token."
      },
      "nonces(address)": {
        "details": "See {IERC20Permit-nonces}."
      },
      "numCheckpoints(address)": {
        "details": "Get number of checkpoints for `account`."
      },
      "owner()": {
        "details": "Returns the address of the current owner."
      },
      "paused()": {
        "details": "Returns true if the contract is paused, and false otherwise."
      },
      "permit(address,address,uint256,uint256,uint8,bytes32,bytes32)": {
        "details": "See {IERC20Permit-permit}."
      },
      "renounceOwnership()": {
        "details": "Leaves the contract without owner. It will not be possible to call `onlyOwner` functions anymore. Can only be called by the current owner. NOTE: Renouncing ownership will leave the contract without an owner, thereby removing any functionality that is only available to the owner."
      },
      "symbol()": {
        "details": "Returns the symbol of the token, usually a shorter version of the name."
      },
      "totalSupply()": {
        "details": "See {IERC20-totalSupply}."
      },
      "transfer(address,uint256)": {
        "details": "See {IERC20-transfer}. Requirements: - `to` cannot be the zero address. - the caller must have a balance of at least `amount`."
      },
      "transferFrom(address,address,uint256)": {
        "details": "See {IERC20-transferFrom}. Emits an {Approval} event indicating the updated allowance. This is not required by the EIP. See the note at the beginning of {ERC20}. NOTE: Does not update the allowance if the current allowance is the maximum `uint256`. Requirements: - `from` and `to` cannot be the zero address. - `from` must have a balance of at least `amount`. - the caller must have allowance for ``from``'s tokens of at least `amount`."
      },
      "transferOwnership(address)": {
        "details": "Transfers ownership of the contract to a new account (`newOwner`). Can only be called by the current owner."
      }
    },
    "version": 1
  },
  "userdoc": {
    "kind": "user",
    "methods": {},
    "version": 1
  }
}