{
  "contractName": "Color",
  "abi": [
    {
      "inputs": [],
      "stateMutability": "nonpayable",
      "type": "constructor"
    },
    {
      "anonymous": false,
      "inputs": [
        {
          "indexed": true,
          "internalType": "address",
          "name": "owner",
          "type": "address"
        },
        {
          "indexed": true,
          "internalType": "address",
          "name": "approved",
          "type": "address"
        },
        {
          "indexed": true,
          "internalType": "uint256",
          "name": "tokenId",
          "type": "uint256"
        }
      ],
      "name": "Approval",
      "type": "event"
    },
    {
      "anonymous": false,
      "inputs": [
        {
          "indexed": true,
          "internalType": "address",
          "name": "owner",
          "type": "address"
        },
        {
          "indexed": true,
          "internalType": "address",
          "name": "operator",
          "type": "address"
        },
        {
          "indexed": false,
          "internalType": "bool",
          "name": "approved",
          "type": "bool"
        }
      ],
      "name": "ApprovalForAll",
      "type": "event"
    },
    {
      "anonymous": false,
      "inputs": [
        {
          "indexed": true,
          "internalType": "address",
          "name": "previousOwner",
          "type": "address"
        },
        {
          "indexed": true,
          "internalType": "address",
          "name": "newOwner",
          "type": "address"
        }
      ],
      "name": "OwnershipTransferred",
      "type": "event"
    },
    {
      "anonymous": false,
      "inputs": [
        {
          "indexed": true,
          "internalType": "address",
          "name": "from",
          "type": "address"
        },
        {
          "indexed": true,
          "internalType": "address",
          "name": "to",
          "type": "address"
        },
        {
          "indexed": true,
          "internalType": "uint256",
          "name": "tokenId",
          "type": "uint256"
        }
      ],
      "name": "Transfer",
      "type": "event"
    },
    {
      "inputs": [
        {
          "internalType": "address",
          "name": "to",
          "type": "address"
        },
        {
          "internalType": "uint256",
          "name": "tokenId",
          "type": "uint256"
        }
      ],
      "name": "approve",
      "outputs": [],
      "stateMutability": "nonpayable",
      "type": "function"
    },
    {
      "inputs": [
        {
          "internalType": "address",
          "name": "owner",
          "type": "address"
        }
      ],
      "name": "balanceOf",
      "outputs": [
        {
          "internalType": "uint256",
          "name": "",
          "type": "uint256"
        }
      ],
      "stateMutability": "view",
      "type": "function",
      "constant": true
    },
    {
      "inputs": [
        {
          "internalType": "uint256",
          "name": "tokenId",
          "type": "uint256"
        }
      ],
      "name": "burn",
      "outputs": [],
      "stateMutability": "nonpayable",
      "type": "function"
    },
    {
      "inputs": [
        {
          "internalType": "string",
          "name": "",
          "type": "string"
        }
      ],
      "name": "colorToTokenId",
      "outputs": [
        {
          "internalType": "uint256",
          "name": "",
          "type": "uint256"
        }
      ],
      "stateMutability": "view",
      "type": "function",
      "constant": true
    },
    {
      "inputs": [
        {
          "internalType": "uint256",
          "name": "",
          "type": "uint256"
        }
      ],
      "name": "colors",
      "outputs": [
        {
          "internalType": "string",
          "name": "",
          "type": "string"
        }
      ],
      "stateMutability": "view",
      "type": "function",
      "constant": true
    },
    {
      "inputs": [
        {
          "internalType": "uint256",
          "name": "tokenId",
          "type": "uint256"
        }
      ],
      "name": "getApproved",
      "outputs": [
        {
          "internalType": "address",
          "name": "",
          "type": "address"
        }
      ],
      "stateMutability": "view",
      "type": "function",
      "constant": true
    },
    {
      "inputs": [
        {
          "internalType": "address",
          "name": "owner",
          "type": "address"
        },
        {
          "internalType": "address",
          "name": "operator",
          "type": "address"
        }
      ],
      "name": "isApprovedForAll",
      "outputs": [
        {
          "internalType": "bool",
          "name": "",
          "type": "bool"
        }
      ],
      "stateMutability": "view",
      "type": "function",
      "constant": true
    },
    {
      "inputs": [],
      "name": "name",
      "outputs": [
        {
          "internalType": "string",
          "name": "",
          "type": "string"
        }
      ],
      "stateMutability": "view",
      "type": "function",
      "constant": true
    },
    {
      "inputs": [],
      "name": "owner",
      "outputs": [
        {
          "internalType": "address",
          "name": "",
          "type": "address"
        }
      ],
      "stateMutability": "view",
      "type": "function",
      "constant": true
    },
    {
      "inputs": [
        {
          "internalType": "uint256",
          "name": "tokenId",
          "type": "uint256"
        }
      ],
      "name": "ownerOf",
      "outputs": [
        {
          "internalType": "address",
          "name": "",
          "type": "address"
        }
      ],
      "stateMutability": "view",
      "type": "function",
      "constant": true
    },
    {
      "inputs": [],
      "name": "renounceOwnership",
      "outputs": [],
      "stateMutability": "nonpayable",
      "type": "function"
    },
    {
      "inputs": [
        {
          "internalType": "address",
          "name": "from",
          "type": "address"
        },
        {
          "internalType": "address",
          "name": "to",
          "type": "address"
        },
        {
          "internalType": "uint256",
          "name": "tokenId",
          "type": "uint256"
        }
      ],
      "name": "safeTransferFrom",
      "outputs": [],
      "stateMutability": "nonpayable",
      "type": "function"
    },
    {
      "inputs": [
        {
          "internalType": "address",
          "name": "from",
          "type": "address"
        },
        {
          "internalType": "address",
          "name": "to",
          "type": "address"
        },
        {
          "internalType": "uint256",
          "name": "tokenId",
          "type": "uint256"
        },
        {
          "internalType": "bytes",
          "name": "_data",
          "type": "bytes"
        }
      ],
      "name": "safeTransferFrom",
      "outputs": [],
      "stateMutability": "nonpayable",
      "type": "function"
    },
    {
      "inputs": [
        {
          "internalType": "address",
          "name": "operator",
          "type": "address"
        },
        {
          "internalType": "bool",
          "name": "approved",
          "type": "bool"
        }
      ],
      "name": "setApprovalForAll",
      "outputs": [],
      "stateMutability": "nonpayable",
      "type": "function"
    },
    {
      "inputs": [],
      "name": "symbol",
      "outputs": [
        {
          "internalType": "string",
          "name": "",
          "type": "string"
        }
      ],
      "stateMutability": "view",
      "type": "function",
      "constant": true
    },
    {
      "inputs": [
        {
          "internalType": "uint256",
          "name": "index",
          "type": "uint256"
        }
      ],
      "name": "tokenByIndex",
      "outputs": [
        {
          "internalType": "uint256",
          "name": "",
          "type": "uint256"
        }
      ],
      "stateMutability": "view",
      "type": "function",
      "constant": true
    },
    {
      "inputs": [
        {
          "internalType": "address",
          "name": "owner",
          "type": "address"
        },
        {
          "internalType": "uint256",
          "name": "index",
          "type": "uint256"
        }
      ],
      "name": "tokenOfOwnerByIndex",
      "outputs": [
        {
          "internalType": "uint256",
          "name": "",
          "type": "uint256"
        }
      ],
      "stateMutability": "view",
      "type": "function",
      "constant": true
    },
    {
      "inputs": [],
      "name": "totalSupply",
      "outputs": [
        {
          "internalType": "uint256",
          "name": "",
          "type": "uint256"
        }
      ],
      "stateMutability": "view",
      "type": "function",
      "constant": true
    },
    {
      "inputs": [
        {
          "internalType": "address",
          "name": "from",
          "type": "address"
        },
        {
          "internalType": "address",
          "name": "to",
          "type": "address"
        },
        {
          "internalType": "uint256",
          "name": "tokenId",
          "type": "uint256"
        }
      ],
      "name": "transferFrom",
      "outputs": [],
      "stateMutability": "nonpayable",
      "type": "function"
    },
    {
      "inputs": [
        {
          "internalType": "address",
          "name": "newOwner",
          "type": "address"
        }
      ],
      "name": "transferOwnership",
      "outputs": [],
      "stateMutability": "nonpayable",
      "type": "function"
    },
    {
      "inputs": [
        {
          "internalType": "string",
          "name": "_color",
          "type": "string"
        }
      ],
      "name": "safeMint",
      "outputs": [],
      "stateMutability": "nonpayable",
      "type": "function"
    },
    {
      "inputs": [
        {
          "internalType": "uint256",
          "name": "tokenId",
          "type": "uint256"
        }
      ],
      "name": "tokenURI",
      "outputs": [
        {
          "internalType": "string",
          "name": "",
          "type": "string"
        }
      ],
      "stateMutability": "view",
      "type": "function",
      "constant": true
    },
    {
      "inputs": [
        {
          "internalType": "bytes4",
          "name": "interfaceId",
          "type": "bytes4"
        }
      ],
      "name": "supportsInterface",
      "outputs": [
        {
          "internalType": "bool",
          "name": "",
          "type": "bool"
        }
      ],
      "stateMutability": "view",
      "type": "function",
      "constant": true
    }
  ],
  "bytecode": "0x60806040523480156200001157600080fd5b506040518060400160405280600581526020017f436f6c6f720000000000000000000000000000000000000000000000000000008152506040518060400160405280600581526020017f434f4c4f52000000000000000000000000000000000000000000000000000000815250816000908051906020019062000096929190620001a6565b508060019080519060200190620000af929190620001a6565b505050620000d2620000c6620000d860201b60201c565b620000e060201b60201c565b620002ba565b600033905090565b6000600660009054906101000a900473ffffffffffffffffffffffffffffffffffffffff16905081600660006101000a81548173ffffffffffffffffffffffffffffffffffffffff021916908373ffffffffffffffffffffffffffffffffffffffff1602179055508173ffffffffffffffffffffffffffffffffffffffff168173ffffffffffffffffffffffffffffffffffffffff167f8be0079c531659141344cd1fd0a4f28419497f9722a3daafe3b4186f6b6457e060405160405180910390a35050565b828054620001b49062000285565b90600052602060002090601f016020900481019282620001d8576000855562000224565b82601f10620001f357805160ff191683800117855562000224565b8280016001018555821562000224579182015b828111156200022357825182559160200191906001019062000206565b5b50905062000233919062000237565b5090565b5b808211156200025257600081600090555060010162000238565b5090565b7f4e487b7100000000000000000000000000000000000000000000000000000000600052602260045260246000fd5b600060028204905060018216806200029e57607f821691505b602082108103620002b457620002b362000256565b5b50919050565b613dd080620002ca6000396000f3fe608060405234801561001057600080fd5b506004361061014d5760003560e01c80636352211e116100c3578063a22cb4651161007c578063a22cb465146103b0578063b88d4fde146103cc578063bd11f69d146103e8578063c87b56dd14610418578063e985e9c514610448578063f2fde38b146104785761014d565b80636352211e146102ee578063695850fb1461031e57806370a082311461033a578063715018a61461036a5780638da5cb5b1461037457806395d89b41146103925761014d565b806318160ddd1161011557806318160ddd1461021c57806323b872dd1461023a5780632f745c591461025657806342842e0e1461028657806342966c68146102a25780634f6ccce7146102be5761014d565b806301ffc9a7146101525780630260ec151461018257806306fdde03146101b2578063081812fc146101d0578063095ea7b314610200575b600080fd5b61016c600480360381019061016791906127e1565b610494565b6040516101799190612829565b60405180910390f35b61019c6004803603810190610197919061298a565b6104a6565b6040516101a991906129ec565b60405180910390f35b6101ba6104d4565b6040516101c79190612a8f565b60405180910390f35b6101ea60048036038101906101e59190612add565b610566565b6040516101f79190612b4b565b60405180910390f35b61021a60048036038101906102159190612b92565b6105eb565b005b610224610702565b60405161023191906129ec565b60405180910390f35b610254600480360381019061024f9190612bd2565b61070f565b005b610270600480360381019061026b9190612b92565b61076f565b60405161027d91906129ec565b60405180910390f35b6102a0600480360381019061029b9190612bd2565b610814565b005b6102bc60048036038101906102b79190612add565b610834565b005b6102d860048036038101906102d39190612add565b610890565b6040516102e591906129ec565b60405180910390f35b61030860048036038101906103039190612add565b610901565b6040516103159190612b4b565b60405180910390f35b6103386004803603810190610333919061298a565b6109b2565b005b610354600480360381019061034f9190612c25565b610b60565b60405161036191906129ec565b60405180910390f35b610372610c17565b005b61037c610c9f565b6040516103899190612b4b565b60405180910390f35b61039a610cc9565b6040516103a79190612a8f565b60405180910390f35b6103ca60048036038101906103c59190612c7e565b610d5b565b005b6103e660048036038101906103e19190612d5f565b610d71565b005b61040260048036038101906103fd9190612add565b610dd3565b60405161040f9190612a8f565b60405180910390f35b610432600480360381019061042d9190612add565b610e7f565b60405161043f9190612a8f565b60405180910390f35b610462600480360381019061045d9190612de2565b610e91565b60405161046f9190612829565b60405180910390f35b610492600480360381019061048d9190612c25565b610f25565b005b600061049f8261101c565b9050919050565b600e818051602081018201805184825260208301602085012081835280955050505050506000915090505481565b6060600080546104e390612e51565b80601f016020809104026020016040519081016040528092919081815260200182805461050f90612e51565b801561055c5780601f106105315761010080835404028352916020019161055c565b820191906000526020600020905b81548152906001019060200180831161053f57829003601f168201915b5050505050905090565b600061057182611096565b6105b0576040517f08c379a00000000000000000000000000000000000000000000000000000000081526004016105a790612ef4565b60405180910390fd5b6004600083815260200190815260200160002060009054906101000a900473ffffffffffffffffffffffffffffffffffffffff169050919050565b60006105f682610901565b90508073ffffffffffffffffffffffffffffffffffffffff168373ffffffffffffffffffffffffffffffffffffffff1603610666576040517f08c379a000000000000000000000000000000000000000000000000000000000815260040161065d90612f86565b60405180910390fd5b8073ffffffffffffffffffffffffffffffffffffffff16610685611102565b73ffffffffffffffffffffffffffffffffffffffff1614806106b457506106b3816106ae611102565b610e91565b5b6106f3576040517f08c379a00000000000000000000000000000000000000000000000000000000081526004016106ea90613018565b60405180910390fd5b6106fd838361110a565b505050565b6000600980549050905090565b61072061071a611102565b826111c3565b61075f576040517f08c379a0000000000000000000000000000000000000000000000000000000008152600401610756906130aa565b60405180910390fd5b61076a8383836112a1565b505050565b600061077a83610b60565b82106107bb576040517f08c379a00000000000000000000000000000000000000000000000000000000081526004016107b29061313c565b60405180910390fd5b600760008473ffffffffffffffffffffffffffffffffffffffff1673ffffffffffffffffffffffffffffffffffffffff168152602001908152602001600020600083815260200190815260200160002054905092915050565b61082f83838360405180602001604052806000815250610d71565b505050565b61084561083f611102565b826111c3565b610884576040517f08c379a000000000000000000000000000000000000000000000000000000000815260040161087b906131ce565b60405180910390fd5b61088d81611507565b50565b600061089a610702565b82106108db576040517f08c379a00000000000000000000000000000000000000000000000000000000081526004016108d290613260565b60405180910390fd5b600982815481106108ef576108ee613280565b5b90600052602060002001549050919050565b6000806002600084815260200190815260200160002060009054906101000a900473ffffffffffffffffffffffffffffffffffffffff169050600073ffffffffffffffffffffffffffffffffffffffff168173ffffffffffffffffffffffffffffffffffffffff16036109a9576040517f08c379a00000000000000000000000000000000000000000000000000000000081526004016109a090613321565b60405180910390fd5b80915050919050565b6109ba611102565b73ffffffffffffffffffffffffffffffffffffffff166109d8610c9f565b73ffffffffffffffffffffffffffffffffffffffff1614610a2e576040517f08c379a0000000000000000000000000000000000000000000000000000000008152600401610a259061338d565b60405180910390fd5b600f81604051610a3e91906133e9565b908152602001604051809103902060009054906101000a900460ff1615610a9a576040517f08c379a0000000000000000000000000000000000000000000000000000000008152600401610a919061344c565b60405180910390fd5b6000610aa6600c611513565b905080600e83604051610ab991906133e9565b908152602001604051809103902081905550600d82908060018154018082558091505060019003906000526020600020016000909190919091509080519060200190610b06929190612692565b506001600f83604051610b1991906133e9565b908152602001604051809103902060006101000a81548160ff021916908315150217905550610b48600c611521565b610b523382611537565b610b5c8183611555565b5050565b60008073ffffffffffffffffffffffffffffffffffffffff168273ffffffffffffffffffffffffffffffffffffffff1603610bd0576040517f08c379a0000000000000000000000000000000000000000000000000000000008152600401610bc7906134de565b60405180910390fd5b600360008373ffffffffffffffffffffffffffffffffffffffff1673ffffffffffffffffffffffffffffffffffffffff168152602001908152602001600020549050919050565b610c1f611102565b73ffffffffffffffffffffffffffffffffffffffff16610c3d610c9f565b73ffffffffffffffffffffffffffffffffffffffff1614610c93576040517f08c379a0000000000000000000000000000000000000000000000000000000008152600401610c8a9061338d565b60405180910390fd5b610c9d60006115c9565b565b6000600660009054906101000a900473ffffffffffffffffffffffffffffffffffffffff16905090565b606060018054610cd890612e51565b80601f0160208091040260200160405190810160405280929190818152602001828054610d0490612e51565b8015610d515780601f10610d2657610100808354040283529160200191610d51565b820191906000526020600020905b815481529060010190602001808311610d3457829003601f168201915b5050505050905090565b610d6d610d66611102565b838361168f565b5050565b610d82610d7c611102565b836111c3565b610dc1576040517f08c379a0000000000000000000000000000000000000000000000000000000008152600401610db8906130aa565b60405180910390fd5b610dcd848484846117fb565b50505050565b600d8181548110610de357600080fd5b906000526020600020016000915090508054610dfe90612e51565b80601f0160208091040260200160405190810160405280929190818152602001828054610e2a90612e51565b8015610e775780601f10610e4c57610100808354040283529160200191610e77565b820191906000526020600020905b815481529060010190602001808311610e5a57829003601f168201915b505050505081565b6060610e8a82611857565b9050919050565b6000600560008473ffffffffffffffffffffffffffffffffffffffff1673ffffffffffffffffffffffffffffffffffffffff16815260200190815260200160002060008373ffffffffffffffffffffffffffffffffffffffff1673ffffffffffffffffffffffffffffffffffffffff16815260200190815260200160002060009054906101000a900460ff16905092915050565b610f2d611102565b73ffffffffffffffffffffffffffffffffffffffff16610f4b610c9f565b73ffffffffffffffffffffffffffffffffffffffff1614610fa1576040517f08c379a0000000000000000000000000000000000000000000000000000000008152600401610f989061338d565b60405180910390fd5b600073ffffffffffffffffffffffffffffffffffffffff168173ffffffffffffffffffffffffffffffffffffffff1603611010576040517f08c379a000000000000000000000000000000000000000000000000000000000815260040161100790613570565b60405180910390fd5b611019816115c9565b50565b60007f780e9d63000000000000000000000000000000000000000000000000000000007bffffffffffffffffffffffffffffffffffffffffffffffffffffffff1916827bffffffffffffffffffffffffffffffffffffffffffffffffffffffff1916148061108f575061108e826119a8565b5b9050919050565b60008073ffffffffffffffffffffffffffffffffffffffff166002600084815260200190815260200160002060009054906101000a900473ffffffffffffffffffffffffffffffffffffffff1673ffffffffffffffffffffffffffffffffffffffff1614159050919050565b600033905090565b816004600083815260200190815260200160002060006101000a81548173ffffffffffffffffffffffffffffffffffffffff021916908373ffffffffffffffffffffffffffffffffffffffff160217905550808273ffffffffffffffffffffffffffffffffffffffff1661117d83610901565b73ffffffffffffffffffffffffffffffffffffffff167f8c5be1e5ebec7d5bd14f71427d1e84f3dd0314c0f7b2291e5b200ac8c7c3b92560405160405180910390a45050565b60006111ce82611096565b61120d576040517f08c379a000000000000000000000000000000000000000000000000000000000815260040161120490613602565b60405180910390fd5b600061121883610901565b90508073ffffffffffffffffffffffffffffffffffffffff168473ffffffffffffffffffffffffffffffffffffffff16148061125a57506112598185610e91565b5b8061129857508373ffffffffffffffffffffffffffffffffffffffff1661128084610566565b73ffffffffffffffffffffffffffffffffffffffff16145b91505092915050565b8273ffffffffffffffffffffffffffffffffffffffff166112c182610901565b73ffffffffffffffffffffffffffffffffffffffff1614611317576040517f08c379a000000000000000000000000000000000000000000000000000000000815260040161130e90613694565b60405180910390fd5b600073ffffffffffffffffffffffffffffffffffffffff168273ffffffffffffffffffffffffffffffffffffffff1603611386576040517f08c379a000000000000000000000000000000000000000000000000000000000815260040161137d90613726565b60405180910390fd5b611391838383611a8a565b61139c60008261110a565b6001600360008573ffffffffffffffffffffffffffffffffffffffff1673ffffffffffffffffffffffffffffffffffffffff16815260200190815260200160002060008282546113ec9190613775565b925050819055506001600360008473ffffffffffffffffffffffffffffffffffffffff1673ffffffffffffffffffffffffffffffffffffffff168152602001908152602001600020600082825461144391906137a9565b92505081905550816002600083815260200190815260200160002060006101000a81548173ffffffffffffffffffffffffffffffffffffffff021916908373ffffffffffffffffffffffffffffffffffffffff160217905550808273ffffffffffffffffffffffffffffffffffffffff168473ffffffffffffffffffffffffffffffffffffffff167fddf252ad1be2c89b69c2b068fc378daa952ba7f163c4a11628f55a4df523b3ef60405160405180910390a4611502838383611a9a565b505050565b61151081611a9f565b50565b600081600001549050919050565b6001816000016000828254019250508190555050565b611551828260405180602001604052806000815250611af2565b5050565b61155e82611096565b61159d576040517f08c379a000000000000000000000000000000000000000000000000000000000815260040161159490613871565b60405180910390fd5b80600b600084815260200190815260200160002090805190602001906115c4929190612692565b505050565b6000600660009054906101000a900473ffffffffffffffffffffffffffffffffffffffff16905081600660006101000a81548173ffffffffffffffffffffffffffffffffffffffff021916908373ffffffffffffffffffffffffffffffffffffffff1602179055508173ffffffffffffffffffffffffffffffffffffffff168173ffffffffffffffffffffffffffffffffffffffff167f8be0079c531659141344cd1fd0a4f28419497f9722a3daafe3b4186f6b6457e060405160405180910390a35050565b8173ffffffffffffffffffffffffffffffffffffffff168373ffffffffffffffffffffffffffffffffffffffff16036116fd576040517f08c379a00000000000000000000000000000000000000000000000000000000081526004016116f4906138dd565b60405180910390fd5b80600560008573ffffffffffffffffffffffffffffffffffffffff1673ffffffffffffffffffffffffffffffffffffffff16815260200190815260200160002060008473ffffffffffffffffffffffffffffffffffffffff1673ffffffffffffffffffffffffffffffffffffffff16815260200190815260200160002060006101000a81548160ff0219169083151502179055508173ffffffffffffffffffffffffffffffffffffffff168373ffffffffffffffffffffffffffffffffffffffff167f17307eab39ab6107e8899845ad3d59bd9653f200f220920489ca2b5937696c31836040516117ee9190612829565b60405180910390a3505050565b6118068484846112a1565b61181284848484611b4d565b611851576040517f08c379a00000000000000000000000000000000000000000000000000000000081526004016118489061396f565b60405180910390fd5b50505050565b606061186282611096565b6118a1576040517f08c379a000000000000000000000000000000000000000000000000000000000815260040161189890613a01565b60405180910390fd5b6000600b600084815260200190815260200160002080546118c190612e51565b80601f01602080910402602001604051908101604052809291908181526020018280546118ed90612e51565b801561193a5780601f1061190f5761010080835404028352916020019161193a565b820191906000526020600020905b81548152906001019060200180831161191d57829003601f168201915b50505050509050600061194b611cd4565b905060008151036119605781925050506119a3565b60008251111561199557808260405160200161197d929190613a21565b604051602081830303815290604052925050506119a3565b61199e84611ceb565b925050505b919050565b60007f80ac58cd000000000000000000000000000000000000000000000000000000007bffffffffffffffffffffffffffffffffffffffffffffffffffffffff1916827bffffffffffffffffffffffffffffffffffffffffffffffffffffffff19161480611a7357507f5b5e139f000000000000000000000000000000000000000000000000000000007bffffffffffffffffffffffffffffffffffffffffffffffffffffffff1916827bffffffffffffffffffffffffffffffffffffffffffffffffffffffff1916145b80611a835750611a8282611d92565b5b9050919050565b611a95838383611dfc565b505050565b505050565b611aa881611f0e565b6000600b60008381526020019081526020016000208054611ac890612e51565b905014611aef57600b60008281526020019081526020016000206000611aee9190612718565b5b50565b611afc838361202b565b611b096000848484611b4d565b611b48576040517f08c379a0000000000000000000000000000000000000000000000000000000008152600401611b3f9061396f565b60405180910390fd5b505050565b6000611b6e8473ffffffffffffffffffffffffffffffffffffffff16612204565b15611cc7578373ffffffffffffffffffffffffffffffffffffffff1663150b7a02611b97611102565b8786866040518563ffffffff1660e01b8152600401611bb99493929190613a9a565b6020604051808303816000875af1925050508015611bf557506040513d601f19601f82011682018060405250810190611bf29190613afb565b60015b611c77573d8060008114611c25576040519150601f19603f3d011682016040523d82523d6000602084013e611c2a565b606091505b506000815103611c6f576040517f08c379a0000000000000000000000000000000000000000000000000000000008152600401611c669061396f565b60405180910390fd5b805181602001fd5b63150b7a0260e01b7bffffffffffffffffffffffffffffffffffffffffffffffffffffffff1916817bffffffffffffffffffffffffffffffffffffffffffffffffffffffff191614915050611ccc565b600190505b949350505050565b606060405180602001604052806000815250905090565b6060611cf682611096565b611d35576040517f08c379a0000000000000000000000000000000000000000000000000000000008152600401611d2c90613b9a565b60405180910390fd5b6000611d3f611cd4565b90506000815111611d5f5760405180602001604052806000815250611d8a565b80611d6984612227565b604051602001611d7a929190613a21565b6040516020818303038152906040525b915050919050565b60007f01ffc9a7000000000000000000000000000000000000000000000000000000007bffffffffffffffffffffffffffffffffffffffffffffffffffffffff1916827bffffffffffffffffffffffffffffffffffffffffffffffffffffffff1916149050919050565b611e07838383612387565b600073ffffffffffffffffffffffffffffffffffffffff168373ffffffffffffffffffffffffffffffffffffffff1603611e4957611e448161238c565b611e88565b8173ffffffffffffffffffffffffffffffffffffffff168373ffffffffffffffffffffffffffffffffffffffff1614611e8757611e8683826123d5565b5b5b600073ffffffffffffffffffffffffffffffffffffffff168273ffffffffffffffffffffffffffffffffffffffff1603611eca57611ec581612542565b611f09565b8273ffffffffffffffffffffffffffffffffffffffff168273ffffffffffffffffffffffffffffffffffffffff1614611f0857611f078282612613565b5b5b505050565b6000611f1982610901565b9050611f2781600084611a8a565b611f3260008361110a565b6001600360008373ffffffffffffffffffffffffffffffffffffffff1673ffffffffffffffffffffffffffffffffffffffff1681526020019081526020016000206000828254611f829190613775565b925050819055506002600083815260200190815260200160002060006101000a81549073ffffffffffffffffffffffffffffffffffffffff021916905581600073ffffffffffffffffffffffffffffffffffffffff168273ffffffffffffffffffffffffffffffffffffffff167fddf252ad1be2c89b69c2b068fc378daa952ba7f163c4a11628f55a4df523b3ef60405160405180910390a461202781600084611a9a565b5050565b600073ffffffffffffffffffffffffffffffffffffffff168273ffffffffffffffffffffffffffffffffffffffff160361209a576040517f08c379a000000000000000000000000000000000000000000000000000000000815260040161209190613c06565b60405180910390fd5b6120a381611096565b156120e3576040517f08c379a00000000000000000000000000000000000000000000000000000000081526004016120da90613c72565b60405180910390fd5b6120ef60008383611a8a565b6001600360008473ffffffffffffffffffffffffffffffffffffffff1673ffffffffffffffffffffffffffffffffffffffff168152602001908152602001600020600082825461213f91906137a9565b92505081905550816002600083815260200190815260200160002060006101000a81548173ffffffffffffffffffffffffffffffffffffffff021916908373ffffffffffffffffffffffffffffffffffffffff160217905550808273ffffffffffffffffffffffffffffffffffffffff16600073ffffffffffffffffffffffffffffffffffffffff167fddf252ad1be2c89b69c2b068fc378daa952ba7f163c4a11628f55a4df523b3ef60405160405180910390a461220060008383611a9a565b5050565b6000808273ffffffffffffffffffffffffffffffffffffffff163b119050919050565b60606000820361226e576040518060400160405280600181526020017f30000000000000000000000000000000000000000000000000000000000000008152509050612382565b600082905060005b600082146122a057808061228990613c92565b915050600a826122999190613d09565b9150612276565b60008167ffffffffffffffff8111156122bc576122bb61285f565b5b6040519080825280601f01601f1916602001820160405280156122ee5781602001600182028036833780820191505090505b5090505b6000851461237b576001826123079190613775565b9150600a856123169190613d3a565b603061232291906137a9565b60f81b81838151811061233857612337613280565b5b60200101907effffffffffffffffffffffffffffffffffffffffffffffffffffffffffffff1916908160001a905350600a856123749190613d09565b94506122f2565b8093505050505b919050565b505050565b600980549050600a600083815260200190815260200160002081905550600981908060018154018082558091505060019003906000526020600020016000909190919091505550565b600060016123e284610b60565b6123ec9190613775565b90506000600860008481526020019081526020016000205490508181146124d1576000600760008673ffffffffffffffffffffffffffffffffffffffff1673ffffffffffffffffffffffffffffffffffffffff168152602001908152602001600020600084815260200190815260200160002054905080600760008773ffffffffffffffffffffffffffffffffffffffff1673ffffffffffffffffffffffffffffffffffffffff168152602001908152602001600020600084815260200190815260200160002081905550816008600083815260200190815260200160002081905550505b6008600084815260200190815260200160002060009055600760008573ffffffffffffffffffffffffffffffffffffffff1673ffffffffffffffffffffffffffffffffffffffff16815260200190815260200160002060008381526020019081526020016000206000905550505050565b600060016009805490506125569190613775565b90506000600a600084815260200190815260200160002054905060006009838154811061258657612585613280565b5b9060005260206000200154905080600983815481106125a8576125a7613280565b5b906000526020600020018190555081600a600083815260200190815260200160002081905550600a60008581526020019081526020016000206000905560098054806125f7576125f6613d6b565b5b6001900381819060005260206000200160009055905550505050565b600061261e83610b60565b905081600760008573ffffffffffffffffffffffffffffffffffffffff1673ffffffffffffffffffffffffffffffffffffffff168152602001908152602001600020600083815260200190815260200160002081905550806008600084815260200190815260200160002081905550505050565b82805461269e90612e51565b90600052602060002090601f0160209004810192826126c05760008555612707565b82601f106126d957805160ff1916838001178555612707565b82800160010185558215612707579182015b828111156127065782518255916020019190600101906126eb565b5b5090506127149190612758565b5090565b50805461272490612e51565b6000825580601f106127365750612755565b601f0160209004906000526020600020908101906127549190612758565b5b50565b5b80821115612771576000816000905550600101612759565b5090565b6000604051905090565b600080fd5b600080fd5b60007fffffffff0000000000000000000000000000000000000000000000000000000082169050919050565b6127be81612789565b81146127c957600080fd5b50565b6000813590506127db816127b5565b92915050565b6000602082840312156127f7576127f661277f565b5b6000612805848285016127cc565b91505092915050565b60008115159050919050565b6128238161280e565b82525050565b600060208201905061283e600083018461281a565b92915050565b600080fd5b600080fd5b6000601f19601f8301169050919050565b7f4e487b7100000000000000000000000000000000000000000000000000000000600052604160045260246000fd5b6128978261284e565b810181811067ffffffffffffffff821117156128b6576128b561285f565b5b80604052505050565b60006128c9612775565b90506128d5828261288e565b919050565b600067ffffffffffffffff8211156128f5576128f461285f565b5b6128fe8261284e565b9050602081019050919050565b82818337600083830152505050565b600061292d612928846128da565b6128bf565b90508281526020810184848401111561294957612948612849565b5b61295484828561290b565b509392505050565b600082601f83011261297157612970612844565b5b813561298184826020860161291a565b91505092915050565b6000602082840312156129a05761299f61277f565b5b600082013567ffffffffffffffff8111156129be576129bd612784565b5b6129ca8482850161295c565b91505092915050565b6000819050919050565b6129e6816129d3565b82525050565b6000602082019050612a0160008301846129dd565b92915050565b600081519050919050565b600082825260208201905092915050565b60005b83811015612a41578082015181840152602081019050612a26565b83811115612a50576000848401525b50505050565b6000612a6182612a07565b612a6b8185612a12565b9350612a7b818560208601612a23565b612a848161284e565b840191505092915050565b60006020820190508181036000830152612aa98184612a56565b905092915050565b612aba816129d3565b8114612ac557600080fd5b50565b600081359050612ad781612ab1565b92915050565b600060208284031215612af357612af261277f565b5b6000612b0184828501612ac8565b91505092915050565b600073ffffffffffffffffffffffffffffffffffffffff82169050919050565b6000612b3582612b0a565b9050919050565b612b4581612b2a565b82525050565b6000602082019050612b606000830184612b3c565b92915050565b612b6f81612b2a565b8114612b7a57600080fd5b50565b600081359050612b8c81612b66565b92915050565b60008060408385031215612ba957612ba861277f565b5b6000612bb785828601612b7d565b9250506020612bc885828601612ac8565b9150509250929050565b600080600060608486031215612beb57612bea61277f565b5b6000612bf986828701612b7d565b9350506020612c0a86828701612b7d565b9250506040612c1b86828701612ac8565b9150509250925092565b600060208284031215612c3b57612c3a61277f565b5b6000612c4984828501612b7d565b91505092915050565b612c5b8161280e565b8114612c6657600080fd5b50565b600081359050612c7881612c52565b92915050565b60008060408385031215612c9557612c9461277f565b5b6000612ca385828601612b7d565b9250506020612cb485828601612c69565b9150509250929050565b600067ffffffffffffffff821115612cd957612cd861285f565b5b612ce28261284e565b9050602081019050919050565b6000612d02612cfd84612cbe565b6128bf565b905082815260208101848484011115612d1e57612d1d612849565b5b612d2984828561290b565b509392505050565b600082601f830112612d4657612d45612844565b5b8135612d56848260208601612cef565b91505092915050565b60008060008060808587031215612d7957612d7861277f565b5b6000612d8787828801612b7d565b9450506020612d9887828801612b7d565b9350506040612da987828801612ac8565b925050606085013567ffffffffffffffff811115612dca57612dc9612784565b5b612dd687828801612d31565b91505092959194509250565b60008060408385031215612df957612df861277f565b5b6000612e0785828601612b7d565b9250506020612e1885828601612b7d565b9150509250929050565b7f4e487b7100000000000000000000000000000000000000000000000000000000600052602260045260246000fd5b60006002820490506001821680612e6957607f821691505b602082108103612e7c57612e7b612e22565b5b50919050565b7f4552433732313a20617070726f76656420717565727920666f72206e6f6e657860008201527f697374656e7420746f6b656e0000000000000000000000000000000000000000602082015250565b6000612ede602c83612a12565b9150612ee982612e82565b604082019050919050565b60006020820190508181036000830152612f0d81612ed1565b9050919050565b7f4552433732313a20617070726f76616c20746f2063757272656e74206f776e6560008201527f7200000000000000000000000000000000000000000000000000000000000000602082015250565b6000612f70602183612a12565b9150612f7b82612f14565b604082019050919050565b60006020820190508181036000830152612f9f81612f63565b9050919050565b7f4552433732313a20617070726f76652063616c6c6572206973206e6f74206f7760008201527f6e6572206e6f7220617070726f76656420666f7220616c6c0000000000000000602082015250565b6000613002603883612a12565b915061300d82612fa6565b604082019050919050565b6000602082019050818103600083015261303181612ff5565b9050919050565b7f4552433732313a207472616e736665722063616c6c6572206973206e6f74206f60008201527f776e6572206e6f7220617070726f766564000000000000000000000000000000602082015250565b6000613094603183612a12565b915061309f82613038565b604082019050919050565b600060208201905081810360008301526130c381613087565b9050919050565b7f455243373231456e756d657261626c653a206f776e657220696e646578206f7560008201527f74206f6620626f756e6473000000000000000000000000000000000000000000602082015250565b6000613126602b83612a12565b9150613131826130ca565b604082019050919050565b6000602082019050818103600083015261315581613119565b9050919050565b7f4552433732314275726e61626c653a2063616c6c6572206973206e6f74206f7760008201527f6e6572206e6f7220617070726f76656400000000000000000000000000000000602082015250565b60006131b8603083612a12565b91506131c38261315c565b604082019050919050565b600060208201905081810360008301526131e7816131ab565b9050919050565b7f455243373231456e756d657261626c653a20676c6f62616c20696e646578206f60008201527f7574206f6620626f756e64730000000000000000000000000000000000000000602082015250565b600061324a602c83612a12565b9150613255826131ee565b604082019050919050565b600060208201905081810360008301526132798161323d565b9050919050565b7f4e487b7100000000000000000000000000000000000000000000000000000000600052603260045260246000fd5b7f4552433732313a206f776e657220717565727920666f72206e6f6e657869737460008201527f656e7420746f6b656e0000000000000000000000000000000000000000000000602082015250565b600061330b602983612a12565b9150613316826132af565b604082019050919050565b6000602082019050818103600083015261333a816132fe565b9050919050565b7f4f776e61626c653a2063616c6c6572206973206e6f7420746865206f776e6572600082015250565b6000613377602083612a12565b915061338282613341565b602082019050919050565b600060208201905081810360008301526133a68161336a565b9050919050565b600081905092915050565b60006133c382612a07565b6133cd81856133ad565b93506133dd818560208601612a23565b80840191505092915050565b60006133f582846133b8565b915081905092915050565b7f436f6c6f7220616c726561647920657869737473000000000000000000000000600082015250565b6000613436601483612a12565b915061344182613400565b602082019050919050565b6000602082019050818103600083015261346581613429565b9050919050565b7f4552433732313a2062616c616e636520717565727920666f7220746865207a6560008201527f726f206164647265737300000000000000000000000000000000000000000000602082015250565b60006134c8602a83612a12565b91506134d38261346c565b604082019050919050565b600060208201905081810360008301526134f7816134bb565b9050919050565b7f4f776e61626c653a206e6577206f776e657220697320746865207a65726f206160008201527f6464726573730000000000000000000000000000000000000000000000000000602082015250565b600061355a602683612a12565b9150613565826134fe565b604082019050919050565b600060208201905081810360008301526135898161354d565b9050919050565b7f4552433732313a206f70657261746f7220717565727920666f72206e6f6e657860008201527f697374656e7420746f6b656e0000000000000000000000000000000000000000602082015250565b60006135ec602c83612a12565b91506135f782613590565b604082019050919050565b6000602082019050818103600083015261361b816135df565b9050919050565b7f4552433732313a207472616e736665722066726f6d20696e636f72726563742060008201527f6f776e6572000000000000000000000000000000000000000000000000000000602082015250565b600061367e602583612a12565b915061368982613622565b604082019050919050565b600060208201905081810360008301526136ad81613671565b9050919050565b7f4552433732313a207472616e7366657220746f20746865207a65726f2061646460008201527f7265737300000000000000000000000000000000000000000000000000000000602082015250565b6000613710602483612a12565b915061371b826136b4565b604082019050919050565b6000602082019050818103600083015261373f81613703565b9050919050565b7f4e487b7100000000000000000000000000000000000000000000000000000000600052601160045260246000fd5b6000613780826129d3565b915061378b836129d3565b92508282101561379e5761379d613746565b5b828203905092915050565b60006137b4826129d3565b91506137bf836129d3565b9250827fffffffffffffffffffffffffffffffffffffffffffffffffffffffffffffffff038211156137f4576137f3613746565b5b828201905092915050565b7f45524337323155524953746f726167653a2055524920736574206f66206e6f6e60008201527f6578697374656e7420746f6b656e000000000000000000000000000000000000602082015250565b600061385b602e83612a12565b9150613866826137ff565b604082019050919050565b6000602082019050818103600083015261388a8161384e565b9050919050565b7f4552433732313a20617070726f766520746f2063616c6c657200000000000000600082015250565b60006138c7601983612a12565b91506138d282613891565b602082019050919050565b600060208201905081810360008301526138f6816138ba565b9050919050565b7f4552433732313a207472616e7366657220746f206e6f6e20455243373231526560008201527f63656976657220696d706c656d656e7465720000000000000000000000000000602082015250565b6000613959603283612a12565b9150613964826138fd565b604082019050919050565b600060208201905081810360008301526139888161394c565b9050919050565b7f45524337323155524953746f726167653a2055524920717565727920666f722060008201527f6e6f6e6578697374656e7420746f6b656e000000000000000000000000000000602082015250565b60006139eb603183612a12565b91506139f68261398f565b604082019050919050565b60006020820190508181036000830152613a1a816139de565b9050919050565b6000613a2d82856133b8565b9150613a3982846133b8565b91508190509392505050565b600081519050919050565b600082825260208201905092915050565b6000613a6c82613a45565b613a768185613a50565b9350613a86818560208601612a23565b613a8f8161284e565b840191505092915050565b6000608082019050613aaf6000830187612b3c565b613abc6020830186612b3c565b613ac960408301856129dd565b8181036060830152613adb8184613a61565b905095945050505050565b600081519050613af5816127b5565b92915050565b600060208284031215613b1157613b1061277f565b5b6000613b1f84828501613ae6565b91505092915050565b7f4552433732314d657461646174613a2055524920717565727920666f72206e6f60008201527f6e6578697374656e7420746f6b656e0000000000000000000000000000000000602082015250565b6000613b84602f83612a12565b9150613b8f82613b28565b604082019050919050565b60006020820190508181036000830152613bb381613b77565b9050919050565b7f4552433732313a206d696e7420746f20746865207a65726f2061646472657373600082015250565b6000613bf0602083612a12565b9150613bfb82613bba565b602082019050919050565b60006020820190508181036000830152613c1f81613be3565b9050919050565b7f4552433732313a20746f6b656e20616c7265616479206d696e74656400000000600082015250565b6000613c5c601c83612a12565b9150613c6782613c26565b602082019050919050565b60006020820190508181036000830152613c8b81613c4f565b9050919050565b6000613c9d826129d3565b91507fffffffffffffffffffffffffffffffffffffffffffffffffffffffffffffffff8203613ccf57613cce613746565b5b600182019050919050565b7f4e487b7100000000000000000000000000000000000000000000000000000000600052601260045260246000fd5b6000613d14826129d3565b9150613d1f836129d3565b925082613d2f57613d2e613cda565b5b828204905092915050565b6000613d45826129d3565b9150613d50836129d3565b925082613d6057613d5f613cda565b5b828206905092915050565b7f4e487b7100000000000000000000000000000000000000000000000000000000600052603160045260246000fdfea26469706673582212202b0e7a269417fc517e650a3a418cc291a256d7e97ad6cb7089a967e1d105889864736f6c634300080e0033",
  "immutableReferences": {},
  "source": "// SPDX-License-Identifier: MIT\npragma solidity >0.4.20;\n\nimport \"../node_modules/@openzeppelin/contracts/interfaces/IERC165.sol\";\nimport '../node_modules/@openzeppelin/contracts/token/ERC721/IERC721.sol';\nimport '../node_modules/@openzeppelin/contracts/token/ERC721/IERC721Receiver.sol';\nimport '../node_modules/@openzeppelin/contracts/utils/math/SafeMath.sol';\nimport '../node_modules/@openzeppelin/contracts/utils/Address.sol';\nimport '../node_modules/@openzeppelin/contracts/utils/Counters.sol';\nimport '../node_modules/@openzeppelin/contracts/utils/introspection/ERC165.sol';\nimport '../node_modules/@openzeppelin/contracts/token/ERC721/ERC721.sol';\nimport '../node_modules/@openzeppelin/contracts/token/ERC721/extensions/IERC721Enumerable.sol';\nimport '../node_modules/@openzeppelin/contracts/token/ERC721/extensions/ERC721Enumerable.sol';\nimport '../node_modules/@openzeppelin/contracts/token/ERC721/extensions/IERC721Metadata.sol';\nimport '../node_modules/@openzeppelin/contracts/token/ERC721/extensions/IERC721Metadata.sol';\nimport \"../node_modules/@openzeppelin/contracts/token/ERC721/extensions/ERC721URIStorage.sol\";\nimport \"../node_modules/@openzeppelin/contracts/token/ERC721/extensions/ERC721Burnable.sol\";\nimport \"../node_modules/@openzeppelin/contracts/access/Ownable.sol\";\n/*ERC721, ERC721Enumerable, ERC721URIStorage, ERC721Burnable, Ownable  */\n\ncontract Color is ERC721, Ownable, ERC721Enumerable, ERC721URIStorage, ERC721Burnable{\n    using Counters for Counters.Counter;\n\n    Counters.Counter private _tokenIdCounter;\n    string[] public colors;\n    mapping (string => uint) public colorToTokenId;\n    mapping (string => bool) _colorExists;\n\n    constructor() ERC721(\"Color\", \"COLOR\") {}\n\n    function safeMint(string memory _color) public onlyOwner {\n        //uint256 tokenId = 1;\n        require(!_colorExists[_color], \"Color already exists\");\n        uint256 tokenId = _tokenIdCounter.current();\n        colorToTokenId[_color] = tokenId;\n        colors.push(_color);\n        _colorExists[_color] = true;\n        _tokenIdCounter.increment();\n        _safeMint(msg.sender,tokenId);\n        _setTokenURI(tokenId, _color);\n    }\n\n    // The following functions are overrides required by Solidity.\n\n    function _beforeTokenTransfer(address from, address to, uint256 tokenId)\n        internal\n        override(ERC721, ERC721Enumerable)\n    {\n        super._beforeTokenTransfer(from, to, tokenId);\n    }\n\n    function _burn(uint256 tokenId) internal override(ERC721, ERC721URIStorage) {\n        super._burn(tokenId);\n    }\n\n    function tokenURI(uint256 tokenId)\n        public\n        view\n        override(ERC721, ERC721URIStorage)\n        returns (string memory)\n    {\n        return super.tokenURI(tokenId);\n    }\n\n    function supportsInterface(bytes4 interfaceId)\n        public\n        view\n        override(ERC721, ERC721Enumerable)\n        returns (bool)\n    {\n        return super.supportsInterface(interfaceId);\n    }\n}\n\n",
  "sourcePath": "/home/secondport/Documents/DApps/Proyectos/Dapp/contracts/Color.sol",
  "compiler": {
    "name": "solc",
    "version": "0.8.14+commit.80d49f37.Emscripten.clang"
  },
  "schemaVersion": "3.4.7",
  "updatedAt": "2022-05-29T21:58:22.207Z",
  "networkType": "ethereum",
  "devdoc": {
    "kind": "dev",
    "methods": {
      "approve(address,uint256)": {
        "details": "See {IERC721-approve}."
      },
      "balanceOf(address)": {
        "details": "See {IERC721-balanceOf}."
      },
      "burn(uint256)": {
        "details": "Burns `tokenId`. See {ERC721-_burn}. Requirements: - The caller must own `tokenId` or be an approved operator."
      },
      "getApproved(uint256)": {
        "details": "See {IERC721-getApproved}."
      },
      "isApprovedForAll(address,address)": {
        "details": "See {IERC721-isApprovedForAll}."
      },
      "name()": {
        "details": "See {IERC721Metadata-name}."
      },
      "owner()": {
        "details": "Returns the address of the current owner."
      },
      "ownerOf(uint256)": {
        "details": "See {IERC721-ownerOf}."
      },
      "renounceOwnership()": {
        "details": "Leaves the contract without owner. It will not be possible to call `onlyOwner` functions anymore. Can only be called by the current owner. NOTE: Renouncing ownership will leave the contract without an owner, thereby removing any functionality that is only available to the owner."
      },
      "safeTransferFrom(address,address,uint256)": {
        "details": "See {IERC721-safeTransferFrom}."
      },
      "safeTransferFrom(address,address,uint256,bytes)": {
        "details": "See {IERC721-safeTransferFrom}."
      },
      "setApprovalForAll(address,bool)": {
        "details": "See {IERC721-setApprovalForAll}."
      },
      "symbol()": {
        "details": "See {IERC721Metadata-symbol}."
      },
      "tokenByIndex(uint256)": {
        "details": "See {IERC721Enumerable-tokenByIndex}."
      },
      "tokenOfOwnerByIndex(address,uint256)": {
        "details": "See {IERC721Enumerable-tokenOfOwnerByIndex}."
      },
      "totalSupply()": {
        "details": "See {IERC721Enumerable-totalSupply}."
      },
      "transferFrom(address,address,uint256)": {
        "details": "See {IERC721-transferFrom}."
      },
      "transferOwnership(address)": {
        "details": "Transfers ownership of the contract to a new account (`newOwner`). Can only be called by the current owner."
      }
    },
    "version": 1
  },
  "userdoc": {
    "kind": "user",
    "methods": {},
    "version": 1
  }
}