{
    "contractName": "Oracle",
    "abi": [
        {
            "inputs": [],
            "stateMutability": "nonpayable",
            "type": "constructor"
        },
        {
            "anonymous": false,
            "inputs": [],
            "name": "__callbackNewData",
            "type": "event"
        },
        {
            "inputs": [],
            "name": "numberAsteroids",
            "outputs": [
                {
                    "internalType": "uint256",
                    "name": "",
                    "type": "uint256"
                }
            ],
            "stateMutability": "view",
            "type": "function"
        },
        {
            "inputs": [
                {
                    "internalType": "uint256",
                    "name": "_num",
                    "type": "uint256"
                }
            ],
            "name": "setNumberAsteroids",
            "outputs": [],
            "stateMutability": "nonpayable",
            "type": "function"
        },
        {
            "inputs": [],
            "name": "update",
            "outputs": [],
            "stateMutability": "nonpayable",
            "type": "function"
        }
    ],
    "bytecode": "608060405234801561001057600080fd5b50600080546001600160a01b031916331790556101a6806100326000396000f3fe608060405234801561001057600080fd5b50600436106100415760003560e01c8063402bc6bb14610046578063829400cb14610065578063a2e620451461007f575b600080fd5b6100636004803603602081101561005c57600080fd5b5035610087565b005b61006d6100d5565b60408051918252519081900360200190f35b6100636100db565b6000546001600160a01b031633146100d05760405162461bcd60e51b81526004018080602001828103825260218152602001806101506021913960400191505060405180910390fd5b600155565b60015481565b6000546001600160a01b031633146101245760405162461bcd60e51b81526004018080602001828103825260218152602001806101506021913960400191505060405180910390fd5b6040517f2bfb84d8e96bf2a06daf6ebca52197c6c24fcd7c9c9c1f434c3bc9e59a92f1c190600090a156fe4f6e6c79206f776e65722063616e2063616c6c20746869732066756e6374696f6ea2646970667358221220c17078d18f558050aa1ee70c4022f94e6f9c816d32606d8fedb778f80ef3394a64736f6c634300060c0033",
    "sourcePath": "/home/secondport/Documents/DApps/Oracle/contracts/Oracle.sol",
    "compiler": {
        "name": "solc",
        "version": "0.6.12+commit.27d51765"
    },
    "functionHashes": {
        "numberAsteroids()": "829400cb",
        "setNumberAsteroids(uint256)": "402bc6bb",
        "update()": "a2e62045"
    },
    "gasEstimates": {
        "creation": {
            "codeDepositCost": "84400",
            "executionCost": "20970",
            "totalCost": "105370"
        },
        "external": {
            "numberAsteroids()": "998",
            "setNumberAsteroids(uint256)": "infinite",
            "update()": "infinite"
        }
    }
}