{
  "contractName": "ganache",
  "abi": [
    {
      "inputs": [
        {
          "internalType": "string",
          "name": "_message",
          "type": "string"
        }
      ],
      "name": "setMessage",
      "outputs": [],
      "stateMutability": "nonpayable",
      "type": "function"
    },
    {
      "inputs": [],
      "name": "getMessage",
      "outputs": [
        {
          "internalType": "string",
          "name": "",
          "type": "string"
        }
      ],
      "stateMutability": "view",
      "type": "function"
    },
    {
      "inputs": [],
      "name": "fullGas",
      "outputs": [],
      "stateMutability": "nonpayable",
      "type": "function"
    },
    {
      "inputs": [],
      "name": "seeValues",
      "outputs": [
        {
          "internalType": "uint256[]",
          "name": "",
          "type": "uint256[]"
        }
      ],
      "stateMutability": "view",
      "type": "function"
    }
  ],
  "bytecode": "0x6080604052604051806020016040528060008152506000908051906020019061002992919061003c565b5034801561003657600080fd5b506100d9565b828054600181600116156101000203166002900490600052602060002090601f016020900481019282601f1061007d57805160ff19168380011785556100ab565b828001600101855582156100ab579182015b828111156100aa57825182559160200191906001019061008f565b5b5090506100b891906100bc565b5090565b5b808211156100d55760008160009055506001016100bd565b5090565b610424806100e86000396000f3fe608060405234801561001057600080fd5b506004361061004c5760003560e01c8063368b8772146100515780636c50b5df1461010c578063a5517be614610116578063ce6d41de14610175575b600080fd5b61010a6004803603602081101561006757600080fd5b810190808035906020019064010000000081111561008457600080fd5b82018360208201111561009657600080fd5b803590602001918460018302840111640100000000831117156100b857600080fd5b91908080601f016020809104026020016040519081016040528093929190818152602001838380828437600081840152601f19601f8201169050808301925050505050505091929192905050506101f8565b005b610114610212565b005b61011e610257565b6040518080602001828103825283818151815260200191508051906020019060200280838360005b83811015610161578082015181840152602081019050610146565b505050509050019250505060405180910390f35b61017d6102af565b6040518080602001828103825283818151815260200191508051906020019080838360005b838110156101bd5780820151818401526020810190506101a2565b50505050905090810190601f1680156101ea5780820380516001836020036101000a031916815260200191505b509250505060405180910390f35b806000908051906020019061020e929190610351565b5050565b60005b60648110156102545760018190806001815401808255809150506001900390600052602060002001600090919091909150558080600101915050610215565b50565b606060018054806020026020016040519081016040528092919081815260200182805480156102a557602002820191906000526020600020905b815481526020019060010190808311610291575b5050505050905090565b606060008054600181600116156101000203166002900480601f0160208091040260200160405190810160405280929190818152602001828054600181600116156101000203166002900480156103475780601f1061031c57610100808354040283529160200191610347565b820191906000526020600020905b81548152906001019060200180831161032a57829003601f168201915b5050505050905090565b828054600181600116156101000203166002900490600052602060002090601f016020900481019282601f1061039257805160ff19168380011785556103c0565b828001600101855582156103c0579182015b828111156103bf5782518255916020019190600101906103a4565b5b5090506103cd91906103d1565b5090565b5b808211156103ea5760008160009055506001016103d2565b509056fea26469706673582212209507f2c9f4452e68d9a95a1f106ce08bd962e4253d1621cd36a68729397d745b64736f6c634300060c0033",
  "immutableReferences": {},
  "source": "// SPDX-License-Identifier: MIT\npragma solidity >0.6.0;\n\ncontract ganache{\n\n    string message = \"\";\n    uint[] list;\n\n    //publicar un mensaje en la cadena de bloques\n    function setMessage(string memory _message)public{\n        message = _message;\n    }\n\n    //funcion de visualizar el mensaje de la cadena de bloques\n    function getMessage()public view returns(string memory){\n        return message;\n    }\n\n    //aumentar el gasto de gas\n    function fullGas()public{\n        for(uint i = 0; i < 100; i++){\n            list.push(i);\n        }\n    }\n\n    //visualizar los valores que consumen mucho gas\n    function seeValues()public view returns(uint[] memory){\n        return list;\n    }\n\n\n}",
  "sourcePath": "/home/secondport/Documents/DApps/Proyectos/Test1/contracts/hello.sol",
  "compiler": {
    "name": "solc",
    "version": "0.6.12+commit.27d51765.Emscripten.clang"
  },
  "schemaVersion": "3.4.7",
  "updatedAt": "2022-05-26T15:38:36.524Z",
  "devdoc": {
    "kind": "dev",
    "methods": {},
    "version": 1
  },
  "userdoc": {
    "kind": "user",
    "methods": {},
    "version": 1
  }
}