{
    "contractName": "ganache",
    "abi": [
        {
            "inputs": [],
            "name": "getMessage",
            "outputs": [
                {
                    "internalType": "string",
                    "name": "",
                    "type": "string"
                }
            ],
            "stateMutability": "view",
            "type": "function"
        },
        {
            "inputs": [
                {
                    "internalType": "string",
                    "name": "_message",
                    "type": "string"
                }
            ],
            "name": "setMessage",
            "outputs": [],
            "stateMutability": "nonpayable",
            "type": "function"
        }
    ],
    "bytecode": "60a0604081905260006080819052610017918161002a565b5034801561002457600080fd5b506100bd565b828054600181600116156101000203166002900490600052602060002090601f016020900481019282601f1061006b57805160ff1916838001178555610098565b82800160010185558215610098579182015b8281111561009857825182559160200191906001019061007d565b506100a49291506100a8565b5090565b5b808211156100a457600081556001016100a9565b6102d6806100cc6000396000f3fe608060405234801561001057600080fd5b50600436106100365760003560e01c8063368b87721461003b578063ce6d41de146100e3575b600080fd5b6100e16004803603602081101561005157600080fd5b81019060208101813564010000000081111561006c57600080fd5b82018360208201111561007e57600080fd5b803590602001918460018302840111640100000000831117156100a057600080fd5b91908080601f016020809104026020016040519081016040528093929190818152602001838380828437600092019190915250929550610160945050505050565b005b6100eb610177565b6040805160208082528351818301528351919283929083019185019080838360005b8381101561012557818101518382015260200161010d565b50505050905090810190601f1680156101525780820380516001836020036101000a031916815260200191505b509250505060405180910390f35b805161017390600090602084019061020d565b5050565b60008054604080516020601f60026000196101006001881615020190951694909404938401819004810282018101909252828152606093909290918301828280156102035780601f106101d857610100808354040283529160200191610203565b820191906000526020600020905b8154815290600101906020018083116101e657829003601f168201915b5050505050905090565b828054600181600116156101000203166002900490600052602060002090601f016020900481019282601f1061024e57805160ff191683800117855561027b565b8280016001018555821561027b579182015b8281111561027b578251825591602001919060010190610260565b5061028792915061028b565b5090565b5b80821115610287576000815560010161028c56fea2646970667358221220148fe810ff634da54dbbf8a7b5bab2b7631f222ed77cfd354cdc3dbf6fbfb01a64736f6c634300060c0033",
    "sourcePath": "/home/secondport/Documents/DApps/Ganache/ganache.sol",
    "compiler": {
        "name": "solc",
        "version": "0.6.12+commit.27d51765"
    },
    "functionHashes": {
        "getMessage()": "ce6d41de",
        "setMessage(string)": "368b8772"
    },
    "gasEstimates": {
        "creation": {
            "codeDepositCost": "145200",
            "executionCost": "infinite",
            "totalCost": "infinite"
        },
        "external": {
            "getMessage()": "infinite",
            "setMessage(string)": "infinite"
        }
    }
}