{
    "contractName": "ganache",
    "abi": [
        {
            "inputs": [],
            "name": "fullGas",
            "outputs": [],
            "stateMutability": "nonpayable",
            "type": "function"
        },
        {
            "inputs": [],
            "name": "getMessage",
            "outputs": [
                {
                    "internalType": "string",
                    "name": "",
                    "type": "string"
                }
            ],
            "stateMutability": "view",
            "type": "function"
        },
        {
            "inputs": [],
            "name": "seeValues",
            "outputs": [
                {
                    "internalType": "uint256[]",
                    "name": "",
                    "type": "uint256[]"
                }
            ],
            "stateMutability": "view",
            "type": "function"
        },
        {
            "inputs": [
                {
                    "internalType": "string",
                    "name": "_message",
                    "type": "string"
                }
            ],
            "name": "setMessage",
            "outputs": [],
            "stateMutability": "nonpayable",
            "type": "function"
        }
    ],
    "bytecode": "60a0604081905260006080819052610017918161002a565b5034801561002457600080fd5b506100bd565b828054600181600116156101000203166002900490600052602060002090601f016020900481019282601f1061006b57805160ff1916838001178555610098565b82800160010185558215610098579182015b8281111561009857825182559160200191906001019061007d565b506100a49291506100a8565b5090565b5b808211156100a457600081556001016100a9565b6103e3806100cc6000396000f3fe608060405234801561001057600080fd5b506004361061004c5760003560e01c8063368b8772146100515780636c50b5df146100f9578063a5517be614610101578063ce6d41de14610159575b600080fd5b6100f76004803603602081101561006757600080fd5b81019060208101813564010000000081111561008257600080fd5b82018360208201111561009457600080fd5b803590602001918460018302840111640100000000831117156100b657600080fd5b91908080601f0160208091040260200160405190810160405280939291908181526020018383808284376000920191909152509295506101d6945050505050565b005b6100f76101ed565b610109610235565b60408051602080825283518183015283519192839290830191858101910280838360005b8381101561014557818101518382015260200161012d565b505050509050019250505060405180910390f35b61016161028d565b6040805160208082528351818301528351919283929083019185019080838360005b8381101561019b578181015183820152602001610183565b50505050905090810190601f1680156101c85780820380516001836020036101000a031916815260200191505b509250505060405180910390f35b80516101e990600090602084019061031a565b5050565b60005b60648110156102325760018054808201825560008290527fb10e2d527612073b26eecdfd717e6a320cf44b4afac2b0732d9fcbe2b7fa0cf601829055016101f0565b50565b6060600180548060200260200160405190810160405280929190818152602001828054801561028357602002820191906000526020600020905b81548152602001906001019080831161026f575b5050505050905090565b60008054604080516020601f60026000196101006001881615020190951694909404938401819004810282018101909252828152606093909290918301828280156102835780601f106102ee57610100808354040283529160200191610283565b820191906000526020600020905b8154815290600101906020018083116102fc57509395945050505050565b828054600181600116156101000203166002900490600052602060002090601f016020900481019282601f1061035b57805160ff1916838001178555610388565b82800160010185558215610388579182015b8281111561038857825182559160200191906001019061036d565b50610394929150610398565b5090565b5b80821115610394576000815560010161039956fea2646970667358221220d864362802461dcdaf3fd822fd110bd0938e4e46b6651ae9d9f5ddecb7651ece64736f6c634300060c0033",
    "sourcePath": "/home/secondport/Documents/DApps/Ganache/ganache.sol",
    "compiler": {
        "name": "solc",
        "version": "0.6.12+commit.27d51765"
    },
    "functionHashes": {
        "fullGas()": "6c50b5df",
        "getMessage()": "ce6d41de",
        "seeValues()": "a5517be6",
        "setMessage(string)": "368b8772"
    },
    "gasEstimates": {
        "creation": {
            "codeDepositCost": "199000",
            "executionCost": "infinite",
            "totalCost": "infinite"
        },
        "external": {
            "fullGas()": "infinite",
            "getMessage()": "infinite",
            "seeValues()": "infinite",
            "setMessage(string)": "infinite"
        }
    }
}