{
  "contractName": "notas",
  "abi": [
    {
      "inputs": [],
      "stateMutability": "nonpayable",
      "type": "constructor"
    },
    {
      "anonymous": false,
      "inputs": [
        {
          "indexed": false,
          "internalType": "bytes32",
          "name": "",
          "type": "bytes32"
        },
        {
          "indexed": false,
          "internalType": "uint256",
          "name": "",
          "type": "uint256"
        }
      ],
      "name": "alumno_evaluado",
      "type": "event"
    },
    {
      "anonymous": false,
      "inputs": [
        {
          "indexed": false,
          "internalType": "string",
          "name": "",
          "type": "string"
        }
      ],
      "name": "evento_revision",
      "type": "event"
    },
    {
      "inputs": [],
      "name": "profesor",
      "outputs": [
        {
          "internalType": "address",
          "name": "",
          "type": "address"
        }
      ],
      "stateMutability": "view",
      "type": "function",
      "constant": true
    },
    {
      "inputs": [
        {
          "internalType": "string",
          "name": "_asignatura",
          "type": "string"
        },
        {
          "internalType": "string",
          "name": "_idAlumno",
          "type": "string"
        },
        {
          "internalType": "uint256",
          "name": "_nota",
          "type": "uint256"
        }
      ],
      "name": "Evaluar",
      "outputs": [],
      "stateMutability": "nonpayable",
      "type": "function"
    },
    {
      "inputs": [
        {
          "internalType": "string",
          "name": "_asignatura",
          "type": "string"
        },
        {
          "internalType": "string",
          "name": "_idAlumno",
          "type": "string"
        }
      ],
      "name": "VerNotas",
      "outputs": [
        {
          "internalType": "uint256",
          "name": "",
          "type": "uint256"
        }
      ],
      "stateMutability": "view",
      "type": "function",
      "constant": true
    },
    {
      "inputs": [
        {
          "internalType": "string",
          "name": "_asignatura",
          "type": "string"
        },
        {
          "internalType": "string",
          "name": "_idAlumno",
          "type": "string"
        }
      ],
      "name": "Revision",
      "outputs": [],
      "stateMutability": "nonpayable",
      "type": "function"
    },
    {
      "inputs": [
        {
          "internalType": "string",
          "name": "_asignatura",
          "type": "string"
        }
      ],
      "name": "VerRevisiones",
      "outputs": [
        {
          "internalType": "string[]",
          "name": "",
          "type": "string[]"
        }
      ],
      "stateMutability": "view",
      "type": "function",
      "constant": true
    }
  ],
  "bytecode": "0x608060405234801561001057600080fd5b50336000806101000a81548173ffffffffffffffffffffffffffffffffffffffff021916908373ffffffffffffffffffffffffffffffffffffffff160217905550610c6d806100606000396000f3fe608060405234801561001057600080fd5b50600436106100575760003560e01c8063303622241461005c578063593cbcf01461008c57806395bb498f146100a8578063df096576146100d8578063df3bba9f146100f6575b600080fd5b610076600480360381019061007191906106ac565b610112565b604051610083919061083f565b60405180910390f35b6100a660048036038101906100a19190610897565b610299565b005b6100c260048036038101906100bd9190610922565b6103ad565b6040516100cf91906109a9565b60405180910390f35b6100e06103f8565b6040516100ed9190610a05565b60405180910390f35b610110600480360381019061010b9190610922565b61041c565b005b60603360008054906101000a900473ffffffffffffffffffffffffffffffffffffffff1673ffffffffffffffffffffffffffffffffffffffff168173ffffffffffffffffffffffffffffffffffffffff16146101a3576040517f08c379a000000000000000000000000000000000000000000000000000000000815260040161019a90610aa3565b60405180910390fd5b6002836040516101b39190610aff565b9081526020016040518091039020805480602002602001604051908101604052809291908181526020016000905b8282101561028d57838290600052602060002001805461020090610b45565b80601f016020809104026020016040519081016040528092919081815260200182805461022c90610b45565b80156102795780601f1061024e57610100808354040283529160200191610279565b820191906000526020600020905b81548152906001019060200180831161025c57829003601f168201915b5050505050815260200190600101906101e1565b50505050915050919050565b3360008054906101000a900473ffffffffffffffffffffffffffffffffffffffff1673ffffffffffffffffffffffffffffffffffffffff168173ffffffffffffffffffffffffffffffffffffffff1614610328576040517f08c379a000000000000000000000000000000000000000000000000000000000815260040161031f90610aa3565b60405180910390fd5b6000848460405160200161033d929190610b76565b6040516020818303038152906040528051906020012090508260016000838152602001908152602001600020819055507f1decb51588158e4fd9a593e42935e33c4641f4958a08256e305bf6dec1092d8f818460405161039e929190610bb3565b60405180910390a15050505050565b60008083836040516020016103c3929190610b76565b604051602081830303815290604052805190602001209050600160008281526020019081526020016000205491505092915050565b60008054906101000a900473ffffffffffffffffffffffffffffffffffffffff1681565b60028260405161042c9190610aff565b9081526020016040518091039020819080600181540180825580915050600190039060005260206000200160009091909190915090805190602001906104739291906104af565b507fafd73f39162aa4c0421f362f3a3d26f44b23c73253256cfc1c68794b0973e0a0816040516104a39190610c15565b60405180910390a15050565b8280546104bb90610b45565b90600052602060002090601f0160209004810192826104dd5760008555610524565b82601f106104f657805160ff1916838001178555610524565b82800160010185558215610524579182015b82811115610523578251825591602001919060010190610508565b5b5090506105319190610535565b5090565b5b8082111561054e576000816000905550600101610536565b5090565b6000604051905090565b600080fd5b600080fd5b600080fd5b600080fd5b6000601f19601f8301169050919050565b7f4e487b7100000000000000000000000000000000000000000000000000000000600052604160045260246000fd5b6105b982610570565b810181811067ffffffffffffffff821117156105d8576105d7610581565b5b80604052505050565b60006105eb610552565b90506105f782826105b0565b919050565b600067ffffffffffffffff82111561061757610616610581565b5b61062082610570565b9050602081019050919050565b82818337600083830152505050565b600061064f61064a846105fc565b6105e1565b90508281526020810184848401111561066b5761066a61056b565b5b61067684828561062d565b509392505050565b600082601f83011261069357610692610566565b5b81356106a384826020860161063c565b91505092915050565b6000602082840312156106c2576106c161055c565b5b600082013567ffffffffffffffff8111156106e0576106df610561565b5b6106ec8482850161067e565b91505092915050565b600081519050919050565b600082825260208201905092915050565b6000819050602082019050919050565b600081519050919050565b600082825260208201905092915050565b60005b8381101561075b578082015181840152602081019050610740565b8381111561076a576000848401525b50505050565b600061077b82610721565b610785818561072c565b935061079581856020860161073d565b61079e81610570565b840191505092915050565b60006107b58383610770565b905092915050565b6000602082019050919050565b60006107d5826106f5565b6107df8185610700565b9350836020820285016107f185610711565b8060005b8581101561082d578484038952815161080e85826107a9565b9450610819836107bd565b925060208a019950506001810190506107f5565b50829750879550505050505092915050565b6000602082019050818103600083015261085981846107ca565b905092915050565b6000819050919050565b61087481610861565b811461087f57600080fd5b50565b6000813590506108918161086b565b92915050565b6000806000606084860312156108b0576108af61055c565b5b600084013567ffffffffffffffff8111156108ce576108cd610561565b5b6108da8682870161067e565b935050602084013567ffffffffffffffff8111156108fb576108fa610561565b5b6109078682870161067e565b925050604061091886828701610882565b9150509250925092565b600080604083850312156109395761093861055c565b5b600083013567ffffffffffffffff81111561095757610956610561565b5b6109638582860161067e565b925050602083013567ffffffffffffffff81111561098457610983610561565b5b6109908582860161067e565b9150509250929050565b6109a381610861565b82525050565b60006020820190506109be600083018461099a565b92915050565b600073ffffffffffffffffffffffffffffffffffffffff82169050919050565b60006109ef826109c4565b9050919050565b6109ff816109e4565b82525050565b6000602082019050610a1a60008301846109f6565b92915050565b600082825260208201905092915050565b7f536f6c6f20656c2070726f6665736f72207075656465207265616c697a61722060008201527f6573746120616363696f6e000000000000000000000000000000000000000000602082015250565b6000610a8d602b83610a20565b9150610a9882610a31565b604082019050919050565b60006020820190508181036000830152610abc81610a80565b9050919050565b600081905092915050565b6000610ad982610721565b610ae38185610ac3565b9350610af381856020860161073d565b80840191505092915050565b6000610b0b8284610ace565b915081905092915050565b7f4e487b7100000000000000000000000000000000000000000000000000000000600052602260045260246000fd5b60006002820490506001821680610b5d57607f821691505b602082108103610b7057610b6f610b16565b5b50919050565b6000610b828285610ace565b9150610b8e8284610ace565b91508190509392505050565b6000819050919050565b610bad81610b9a565b82525050565b6000604082019050610bc86000830185610ba4565b610bd5602083018461099a565b9392505050565b6000610be782610721565b610bf18185610a20565b9350610c0181856020860161073d565b610c0a81610570565b840191505092915050565b60006020820190508181036000830152610c2f8184610bdc565b90509291505056fea2646970667358221220554f7a6254e545bad8f04e9d087f067b046386388701482376168de50de6f48364736f6c634300080d0033",
  "immutableReferences": {},
  "source": "// SPDX-License-Identifier: MIT\npragma solidity >0.6.0;\npragma experimental ABIEncoderV2;\n\n//declaraciones previas\ncontract notas{\n\n    //direccion del profesor\n    address public profesor;\n\n    constructor()public{\n        profesor = msg.sender;\n    }\n\n    //mapping para relacionar el hash de la identidad del alumno con su nota del examen\n    mapping(bytes32 => uint) notas_alumnos;\n\n    //mapping de los alumnos que pida revisiones de examen para una materia\n    mapping(string=> string[]) revisiones;\n\n    //eventos\n    event alumno_evaluado(bytes32, uint);\n    event evento_revision(string);\n\n    //funcion para evaluar a alumnos\n    function Evaluar(string memory _asignatura, string memory _idAlumno, uint _nota)public UnicamenteProfesor(msg.sender){\n        bytes32 hashAlumno = keccak256(abi.encodePacked(_asignatura, _idAlumno));\n\n        //relacion entre el hash de la identificacion del alumno y su nota\n        notas_alumnos[hashAlumno] = _nota;\n\n        //emision del evento\n        emit alumno_evaluado(hashAlumno, _nota);\n    }\n\n    modifier UnicamenteProfesor(address _direccion){\n        //requiere que la direccion introducida por el parametro sea igual al owner del contrato\n        require(_direccion == profesor,\"Solo el profesor puede realizar esta accion\");\n        _;\n    }\n\n    //funcion para ver las notas de un alumno\n    function VerNotas(string memory _asignatura, string memory _idAlumno)public view returns(uint){\n        bytes32 hashAlumno = keccak256(abi.encodePacked(_asignatura, _idAlumno));\n        return notas_alumnos[hashAlumno];\n    }\n\n    //funcion para pedir revision de examen\n    function Revision( string memory _asignatura, string memory _idAlumno)public{\n        //almacenamiento de la identidad del alumno en un array\n        revisiones[_asignatura].push(_idAlumno);\n        //emitir el evento\n        emit evento_revision(_idAlumno);\n\n    }\n\n    //funcion para ver revisiones de examen\n    function VerRevisiones(string memory _asignatura)public view UnicamenteProfesor(msg.sender) returns(string[] memory){\n        //devolver las identidades de los alumnos que han pedido revision\n        return revisiones[_asignatura];\n    }\n}",
  "sourcePath": "/home/secondport/Documents/DApps/truffle/contracts/notas.sol",
  "compiler": {
    "name": "solc",
    "version": "0.8.13+commit.abaa5c0e.Emscripten.clang"
  },
  "schemaVersion": "3.4.7",
  "updatedAt": "2022-05-01T14:46:51.053Z",
  "networkType": "ethereum",
  "devdoc": {
    "kind": "dev",
    "methods": {},
    "version": 1
  },
  "userdoc": {
    "kind": "user",
    "methods": {},
    "version": 1
  }
}