{
  "contractName": "notas",
  "abi": [
    {
      "inputs": [],
      "stateMutability": "nonpayable",
      "type": "constructor"
    },
    {
      "anonymous": false,
      "inputs": [
        {
          "indexed": false,
          "internalType": "bytes32",
          "name": "",
          "type": "bytes32"
        },
        {
          "indexed": false,
          "internalType": "uint256",
          "name": "",
          "type": "uint256"
        }
      ],
      "name": "alumno_evaluado",
      "type": "event"
    },
    {
      "anonymous": false,
      "inputs": [
        {
          "indexed": false,
          "internalType": "string",
          "name": "",
          "type": "string"
        },
        {
          "indexed": false,
          "internalType": "string",
          "name": "",
          "type": "string"
        }
      ],
      "name": "evento_revision",
      "type": "event"
    },
    {
      "inputs": [],
      "name": "profesor",
      "outputs": [
        {
          "internalType": "address",
          "name": "",
          "type": "address"
        }
      ],
      "stateMutability": "view",
      "type": "function",
      "constant": true
    },
    {
      "inputs": [
        {
          "internalType": "string",
          "name": "_idAlumno",
          "type": "string"
        },
        {
          "internalType": "uint256",
          "name": "_nota",
          "type": "uint256"
        },
        {
          "internalType": "string",
          "name": "materia",
          "type": "string"
        }
      ],
      "name": "Evaluar",
      "outputs": [],
      "stateMutability": "nonpayable",
      "type": "function"
    },
    {
      "inputs": [
        {
          "internalType": "string",
          "name": "_idAlumno",
          "type": "string"
        },
        {
          "internalType": "string",
          "name": "_materia",
          "type": "string"
        }
      ],
      "name": "VerNotas",
      "outputs": [
        {
          "internalType": "uint256",
          "name": "",
          "type": "uint256"
        }
      ],
      "stateMutability": "view",
      "type": "function",
      "constant": true
    },
    {
      "inputs": [
        {
          "internalType": "string",
          "name": "_idAlumno",
          "type": "string"
        },
        {
          "internalType": "string",
          "name": "_materia",
          "type": "string"
        }
      ],
      "name": "Revision",
      "outputs": [],
      "stateMutability": "nonpayable",
      "type": "function"
    },
    {
      "inputs": [
        {
          "internalType": "string",
          "name": "_materia",
          "type": "string"
        }
      ],
      "name": "VerRevisiones",
      "outputs": [
        {
          "internalType": "string[]",
          "name": "",
          "type": "string[]"
        }
      ],
      "stateMutability": "view",
      "type": "function",
      "constant": true
    }
  ],
  "bytecode": "0x608060405234801561001057600080fd5b50336000806101000a81548173ffffffffffffffffffffffffffffffffffffffff021916908373ffffffffffffffffffffffffffffffffffffffff160217905550610e0e806100606000396000f3fe608060405234801561001057600080fd5b50600436106100575760003560e01c8063303622241461005c57806384d3cd371461008c57806395bb498f146100a8578063df096576146100d8578063df3bba9f146100f6575b600080fd5b610076600480360381019061007191906107ca565b610112565b604051610083919061095d565b60405180910390f35b6100a660048036038101906100a191906109b5565b610299565b005b6100c260048036038101906100bd9190610a40565b610400565b6040516100cf9190610ac7565b60405180910390f35b6100e0610486565b6040516100ed9190610b23565b60405180910390f35b610110600480360381019061010b9190610a40565b6104aa565b005b60603360008054906101000a900473ffffffffffffffffffffffffffffffffffffffff1673ffffffffffffffffffffffffffffffffffffffff168173ffffffffffffffffffffffffffffffffffffffff16146101a3576040517f08c379a000000000000000000000000000000000000000000000000000000000815260040161019a90610bc1565b60405180910390fd5b6003836040516101b39190610c1d565b9081526020016040518091039020805480602002602001604051908101604052809291908181526020016000905b8282101561028d57838290600052602060002001805461020090610c63565b80601f016020809104026020016040519081016040528092919081815260200182805461022c90610c63565b80156102795780601f1061024e57610100808354040283529160200191610279565b820191906000526020600020905b81548152906001019060200180831161025c57829003601f168201915b5050505050815260200190600101906101e1565b50505050915050919050565b3360008054906101000a900473ffffffffffffffffffffffffffffffffffffffff1673ffffffffffffffffffffffffffffffffffffffff168173ffffffffffffffffffffffffffffffffffffffff1614610328576040517f08c379a000000000000000000000000000000000000000000000000000000000815260040161031f90610bc1565b60405180910390fd5b60008460405160200161033b9190610c1d565b6040516020818303038152906040528051906020012090506000836040516020016103669190610c1d565b60405160208183030381529060405280519060200120905084600160008481526020019081526020016000208190555084600260008381526020019081526020016000206000848152602001908152602001600020819055507f1decb51588158e4fd9a593e42935e33c4641f4958a08256e305bf6dec1092d8f82866040516103f0929190610cad565b60405180910390a1505050505050565b600080836040516020016104149190610c1d565b60405160208183030381529060405280519060200120905060008360405160200161043f9190610c1d565b604051602081830303815290604052805190602001209050600260008281526020019081526020016000206000838152602001908152602001600020549250505092915050565b60008054906101000a900473ffffffffffffffffffffffffffffffffffffffff1681565b60008054906101000a900473ffffffffffffffffffffffffffffffffffffffff1673ffffffffffffffffffffffffffffffffffffffff163373ffffffffffffffffffffffffffffffffffffffff1603610538576040517f08c379a000000000000000000000000000000000000000000000000000000000815260040161052f90610d48565b60405180910390fd5b6003816040516105489190610c1d565b90815260200160405180910390208290806001815401808255809150506001900390600052602060002001600090919091909150908051906020019061058f9291906105cd565b507ffde52eb7e780c752f8e3f5c8545d71daf96243c9877706bea624049246b412fa82826040516105c1929190610da1565b60405180910390a15050565b8280546105d990610c63565b90600052602060002090601f0160209004810192826105fb5760008555610642565b82601f1061061457805160ff1916838001178555610642565b82800160010185558215610642579182015b82811115610641578251825591602001919060010190610626565b5b50905061064f9190610653565b5090565b5b8082111561066c576000816000905550600101610654565b5090565b6000604051905090565b600080fd5b600080fd5b600080fd5b600080fd5b6000601f19601f8301169050919050565b7f4e487b7100000000000000000000000000000000000000000000000000000000600052604160045260246000fd5b6106d78261068e565b810181811067ffffffffffffffff821117156106f6576106f561069f565b5b80604052505050565b6000610709610670565b905061071582826106ce565b919050565b600067ffffffffffffffff8211156107355761073461069f565b5b61073e8261068e565b9050602081019050919050565b82818337600083830152505050565b600061076d6107688461071a565b6106ff565b90508281526020810184848401111561078957610788610689565b5b61079484828561074b565b509392505050565b600082601f8301126107b1576107b0610684565b5b81356107c184826020860161075a565b91505092915050565b6000602082840312156107e0576107df61067a565b5b600082013567ffffffffffffffff8111156107fe576107fd61067f565b5b61080a8482850161079c565b91505092915050565b600081519050919050565b600082825260208201905092915050565b6000819050602082019050919050565b600081519050919050565b600082825260208201905092915050565b60005b8381101561087957808201518184015260208101905061085e565b83811115610888576000848401525b50505050565b60006108998261083f565b6108a3818561084a565b93506108b381856020860161085b565b6108bc8161068e565b840191505092915050565b60006108d3838361088e565b905092915050565b6000602082019050919050565b60006108f382610813565b6108fd818561081e565b93508360208202850161090f8561082f565b8060005b8581101561094b578484038952815161092c85826108c7565b9450610937836108db565b925060208a01995050600181019050610913565b50829750879550505050505092915050565b6000602082019050818103600083015261097781846108e8565b905092915050565b6000819050919050565b6109928161097f565b811461099d57600080fd5b50565b6000813590506109af81610989565b92915050565b6000806000606084860312156109ce576109cd61067a565b5b600084013567ffffffffffffffff8111156109ec576109eb61067f565b5b6109f88682870161079c565b9350506020610a09868287016109a0565b925050604084013567ffffffffffffffff811115610a2a57610a2961067f565b5b610a368682870161079c565b9150509250925092565b60008060408385031215610a5757610a5661067a565b5b600083013567ffffffffffffffff811115610a7557610a7461067f565b5b610a818582860161079c565b925050602083013567ffffffffffffffff811115610aa257610aa161067f565b5b610aae8582860161079c565b9150509250929050565b610ac18161097f565b82525050565b6000602082019050610adc6000830184610ab8565b92915050565b600073ffffffffffffffffffffffffffffffffffffffff82169050919050565b6000610b0d82610ae2565b9050919050565b610b1d81610b02565b82525050565b6000602082019050610b386000830184610b14565b92915050565b600082825260208201905092915050565b7f536f6c6f20656c2070726f6665736f72207075656465207265616c697a61722060008201527f6573746120616363696f6e000000000000000000000000000000000000000000602082015250565b6000610bab602b83610b3e565b9150610bb682610b4f565b604082019050919050565b60006020820190508181036000830152610bda81610b9e565b9050919050565b600081905092915050565b6000610bf78261083f565b610c018185610be1565b9350610c1181856020860161085b565b80840191505092915050565b6000610c298284610bec565b915081905092915050565b7f4e487b7100000000000000000000000000000000000000000000000000000000600052602260045260246000fd5b60006002820490506001821680610c7b57607f821691505b602082108103610c8e57610c8d610c34565b5b50919050565b6000819050919050565b610ca781610c94565b82525050565b6000604082019050610cc26000830185610c9e565b610ccf6020830184610ab8565b9392505050565b7f536f6c6f206c6f7320616c756d6e6f732070756564656e2074656e657220726560008201527f766973696f6e0000000000000000000000000000000000000000000000000000602082015250565b6000610d32602683610b3e565b9150610d3d82610cd6565b604082019050919050565b60006020820190508181036000830152610d6181610d25565b9050919050565b6000610d738261083f565b610d7d8185610b3e565b9350610d8d81856020860161085b565b610d968161068e565b840191505092915050565b60006040820190508181036000830152610dbb8185610d68565b90508181036020830152610dcf8184610d68565b9050939250505056fea26469706673582212200df3975862bff0730dfe6cd163322688e923fd7293072955e65f4ed518bbfdd464736f6c634300080d0033",
  "immutableReferences": {},
  "source": "// SPDX-License-Identifier: MIT\npragma solidity >0.4.20;\npragma experimental ABIEncoderV2;\n\n//declaraciones previas\ncontract notas{\n\n    //direccion del profesor\n    address public profesor;\n\n    constructor()public{\n        profesor = msg.sender;\n    }\n\n    //mapping para relacionar el hash de la identidad del alumno con su nota del examen\n    mapping(bytes32 => uint) notas_alumnos;\n\n    //mapping para relacionar el mapping de notas con el de materias\n    mapping(bytes32 => mapping(bytes32 => uint)) notas_materias;\n\n    //mapping de los alumnos que pida revisiones de examen para una materia\n    mapping(string=> string[]) revisiones;\n\n\n    //eventos\n    event alumno_evaluado(bytes32, uint);\n    event evento_revision(string, string);\n\n    //funcion para evaluar a alumnos\n    function Evaluar(string memory _idAlumno, uint _nota, string memory materia)public UnicamenteProfesor(msg.sender){\n        bytes32 hashAlumno = keccak256(abi.encodePacked((_idAlumno)));\n        bytes32 hashMateria = keccak256(abi.encodePacked((materia)));\n\n        //relacion entre el hash de la identificacion del alumno y su nota\n        notas_alumnos[hashAlumno] = _nota;\n        //relacion entre el hash de la materia y la nota\n        notas_materias[hashMateria][hashAlumno] = _nota;\n\n        //emision del evento\n        emit alumno_evaluado(hashAlumno, _nota);\n    }\n\n    modifier UnicamenteProfesor(address _direccion){\n        //requiere que la direccion introducida por el parametro sea igual al owner del contrato\n        require(_direccion == profesor,\"Solo el profesor puede realizar esta accion\");\n        _;\n    }\n\n    //funcion para ver las notas de un alumno\n    function VerNotas(string memory _idAlumno, string memory _materia)public view returns(uint){\n        bytes32 hashAlumno = keccak256(abi.encodePacked((_idAlumno)));\n        bytes32 hashMateria = keccak256(abi.encodePacked((_materia)));\n\n        return notas_materias[hashMateria][hashAlumno];\n    }\n\n    //funcion para pedir revision de examen\n    function Revision(string memory _idAlumno, string memory _materia)public{\n        require(msg.sender != profesor,\"Solo los alumnos pueden tener revision\");\n        //almacenamiento de la identidad del alumno en un array\n        revisiones[_materia].push(_idAlumno);\n        //emitir el evento\n        emit evento_revision(_idAlumno, _materia);\n\n    }\n\n    //funcion para ver revisiones de examen\n    function VerRevisiones(string memory _materia)public view UnicamenteProfesor(msg.sender) returns(string[] memory){\n        //devolver las identidades de los alumnos que han pedido revision\n        return revisiones[_materia];\n    }\n}",
  "sourcePath": "/home/secondport/Documents/DApps/Proyectos/truffle/contracts/notas.sol",
  "compiler": {
    "name": "solc",
    "version": "0.8.13+commit.abaa5c0e.Emscripten.clang"
  },
  "schemaVersion": "3.4.7",
  "updatedAt": "2022-05-26T15:41:09.763Z",
  "networkType": "ethereum",
  "devdoc": {
    "kind": "dev",
    "methods": {},
    "version": 1
  },
  "userdoc": {
    "kind": "user",
    "methods": {},
    "version": 1
  }
}